{
  "_format": "hh-sol-artifact-1",
  "contractName": "DAOCare",
  "sourceName": "contracts/WorlidDao.sol",
  "abi": [
    {
      "inputs": [
        {
          "internalType": "contract IWorldID",
          "name": "_worldId",
          "type": "address"
        },
        {
          "internalType": "uint256",
          "name": "_groupId",
          "type": "uint256"
        },
        {
          "internalType": "string",
          "name": "_actionId",
          "type": "string"
        },
        {
          "internalType": "contract ISuperfluid",
          "name": "host",
          "type": "address"
        },
        {
          "internalType": "contract ISuperToken",
          "name": "acceptedToken",
          "type": "address"
        },
        {
          "internalType": "address",
          "name": "receiver",
          "type": "address"
        },
        {
          "internalType": "contract IPublicLock",
          "name": "_lockAddress",
          "type": "address"
        }
      ],
      "stateMutability": "nonpayable",
      "type": "constructor"
    },
    {
      "inputs": [],
      "name": "InvalidAgreement",
      "type": "error"
    },
    {
      "inputs": [],
      "name": "InvalidNullifier",
      "type": "error"
    },
    {
      "inputs": [],
      "name": "InvalidToken",
      "type": "error"
    },
    {
      "inputs": [],
      "name": "Unauthorized",
      "type": "error"
    },
    {
      "anonymous": false,
      "inputs": [
        {
          "indexed": true,
          "internalType": "uint256",
          "name": "proposalId",
          "type": "uint256"
        },
        {
          "indexed": true,
          "internalType": "address",
          "name": "proposer",
          "type": "address"
        }
      ],
      "name": "ProposalCreated",
      "type": "event"
    },
    {
      "inputs": [
        {
          "internalType": "uint256",
          "name": "_proposalId",
          "type": "uint256"
        },
        {
          "internalType": "string",
          "name": "_description",
          "type": "string"
        }
      ],
      "name": "PlannerRegister",
      "outputs": [],
      "stateMutability": "nonpayable",
      "type": "function"
    },
    {
      "inputs": [
        {
          "internalType": "uint256",
          "name": "_proposalId",
          "type": "uint256"
        },
        {
          "internalType": "string",
          "name": "_name",
          "type": "string"
        }
      ],
      "name": "VolunteerRegister",
      "outputs": [],
      "stateMutability": "nonpayable",
      "type": "function"
    },
    {
      "inputs": [],
      "name": "_host",
      "outputs": [
        {
          "internalType": "contract ISuperfluid",
          "name": "",
          "type": "address"
        }
      ],
      "stateMutability": "view",
      "type": "function"
    },
    {
      "inputs": [
        {
          "internalType": "uint256",
          "name": "proposalId",
          "type": "uint256"
        },
        {
          "internalType": "address",
          "name": "_volunteerAddr",
          "type": "address"
        }
      ],
      "name": "_isVolunteerCompleted",
      "outputs": [],
      "stateMutability": "nonpayable",
      "type": "function"
    },
    {
      "inputs": [
        {
          "internalType": "address",
          "name": "_proposer",
          "type": "address"
        }
      ],
      "name": "acceptedProposal",
      "outputs": [],
      "stateMutability": "nonpayable",
      "type": "function"
    },
    {
      "inputs": [
        {
          "internalType": "uint256",
          "name": "",
          "type": "uint256"
        }
      ],
      "name": "activeProposerAddress",
      "outputs": [
        {
          "internalType": "address",
          "name": "",
          "type": "address"
        }
      ],
      "stateMutability": "view",
      "type": "function"
    },
    {
      "inputs": [
        {
          "internalType": "contract ISuperToken",
          "name": "_superToken",
          "type": "address"
        },
        {
          "internalType": "address",
          "name": "_agreementClass",
          "type": "address"
        },
        {
          "internalType": "bytes32",
          "name": "",
          "type": "bytes32"
        },
        {
          "internalType": "bytes",
          "name": "",
          "type": "bytes"
        },
        {
          "internalType": "bytes",
          "name": "_cbdata",
          "type": "bytes"
        },
        {
          "internalType": "bytes",
          "name": "_ctx",
          "type": "bytes"
        }
      ],
      "name": "afterAgreementCreated",
      "outputs": [
        {
          "internalType": "bytes",
          "name": "newCtx",
          "type": "bytes"
        }
      ],
      "stateMutability": "nonpayable",
      "type": "function"
    },
    {
      "inputs": [
        {
          "internalType": "contract ISuperToken",
          "name": "_superToken",
          "type": "address"
        },
        {
          "internalType": "address",
          "name": "_agreementClass",
          "type": "address"
        },
        {
          "internalType": "bytes32",
          "name": "",
          "type": "bytes32"
        },
        {
          "internalType": "bytes",
          "name": "",
          "type": "bytes"
        },
        {
          "internalType": "bytes",
          "name": "_cbdata",
          "type": "bytes"
        },
        {
          "internalType": "bytes",
          "name": "_ctx",
          "type": "bytes"
        }
      ],
      "name": "afterAgreementTerminated",
      "outputs": [
        {
          "internalType": "bytes",
          "name": "newCtx",
          "type": "bytes"
        }
      ],
      "stateMutability": "nonpayable",
      "type": "function"
    },
    {
      "inputs": [
        {
          "internalType": "contract ISuperToken",
          "name": "_superToken",
          "type": "address"
        },
        {
          "internalType": "address",
          "name": "_agreementClass",
          "type": "address"
        },
        {
          "internalType": "bytes32",
          "name": "",
          "type": "bytes32"
        },
        {
          "internalType": "bytes",
          "name": "",
          "type": "bytes"
        },
        {
          "internalType": "bytes",
          "name": "_cbdata",
          "type": "bytes"
        },
        {
          "internalType": "bytes",
          "name": "_ctx",
          "type": "bytes"
        }
      ],
      "name": "afterAgreementUpdated",
      "outputs": [
        {
          "internalType": "bytes",
          "name": "newCtx",
          "type": "bytes"
        }
      ],
      "stateMutability": "nonpayable",
      "type": "function"
    },
    {
      "inputs": [
        {
          "internalType": "contract ISuperToken",
          "name": "",
          "type": "address"
        },
        {
          "internalType": "address",
          "name": "",
          "type": "address"
        },
        {
          "internalType": "bytes32",
          "name": "",
          "type": "bytes32"
        },
        {
          "internalType": "bytes",
          "name": "",
          "type": "bytes"
        },
        {
          "internalType": "bytes",
          "name": "",
          "type": "bytes"
        }
      ],
      "name": "beforeAgreementCreated",
      "outputs": [
        {
          "internalType": "bytes",
          "name": "",
          "type": "bytes"
        }
      ],
      "stateMutability": "view",
      "type": "function"
    },
    {
      "inputs": [
        {
          "internalType": "contract ISuperToken",
          "name": "",
          "type": "address"
        },
        {
          "internalType": "address",
          "name": "",
          "type": "address"
        },
        {
          "internalType": "bytes32",
          "name": "",
          "type": "bytes32"
        },
        {
          "internalType": "bytes",
          "name": "",
          "type": "bytes"
        },
        {
          "internalType": "bytes",
          "name": "",
          "type": "bytes"
        }
      ],
      "name": "beforeAgreementTerminated",
      "outputs": [
        {
          "internalType": "bytes",
          "name": "",
          "type": "bytes"
        }
      ],
      "stateMutability": "view",
      "type": "function"
    },
    {
      "inputs": [
        {
          "internalType": "contract ISuperToken",
          "name": "_superToken",
          "type": "address"
        },
        {
          "internalType": "address",
          "name": "_agreementClass",
          "type": "address"
        },
        {
          "internalType": "bytes32",
          "name": "",
          "type": "bytes32"
        },
        {
          "internalType": "bytes",
          "name": "",
          "type": "bytes"
        },
        {
          "internalType": "bytes",
          "name": "_ctx",
          "type": "bytes"
        }
      ],
      "name": "beforeAgreementUpdated",
      "outputs": [
        {
          "internalType": "bytes",
          "name": "cbdata",
          "type": "bytes"
        }
      ],
      "stateMutability": "view",
      "type": "function"
    },
    {
      "inputs": [
        {
          "internalType": "uint256",
          "name": "proposalId",
          "type": "uint256"
        },
        {
          "internalType": "address",
          "name": "_planner",
          "type": "address"
        }
      ],
      "name": "bookPlanner",
      "outputs": [],
      "stateMutability": "nonpayable",
      "type": "function"
    },
    {
      "inputs": [
        {
          "internalType": "uint256",
          "name": "proposalId",
          "type": "uint256"
        },
        {
          "internalType": "enum DAOCare.VoteType",
          "name": "_voteType",
          "type": "uint8"
        },
        {
          "internalType": "address",
          "name": "input",
          "type": "address"
        },
        {
          "internalType": "uint256",
          "name": "root",
          "type": "uint256"
        },
        {
          "internalType": "uint256",
          "name": "nullifierHash",
          "type": "uint256"
        },
        {
          "internalType": "uint256[8]",
          "name": "proof",
          "type": "uint256[8]"
        }
      ],
      "name": "castVote",
      "outputs": [],
      "stateMutability": "nonpayable",
      "type": "function"
    },
    {
      "inputs": [],
      "name": "cfaV1Lib",
      "outputs": [
        {
          "internalType": "contract ISuperfluid",
          "name": "host",
          "type": "address"
        },
        {
          "internalType": "contract IConstantFlowAgreementV1",
          "name": "cfa",
          "type": "address"
        }
      ],
      "stateMutability": "view",
      "type": "function"
    },
    {
      "inputs": [],
      "name": "createIndex",
      "outputs": [],
      "stateMutability": "nonpayable",
      "type": "function"
    },
    {
      "inputs": [
        {
          "internalType": "string",
          "name": "_description",
          "type": "string"
        }
      ],
      "name": "createProposal",
      "outputs": [],
      "stateMutability": "nonpayable",
      "type": "function"
    },
    {
      "inputs": [],
      "name": "currentProposar",
      "outputs": [
        {
          "internalType": "address",
          "name": "",
          "type": "address"
        }
      ],
      "stateMutability": "view",
      "type": "function"
    },
    {
      "inputs": [
        {
          "internalType": "address",
          "name": "subscriber",
          "type": "address"
        }
      ],
      "name": "deleteShares",
      "outputs": [],
      "stateMutability": "nonpayable",
      "type": "function"
    },
    {
      "inputs": [],
      "name": "distribute",
      "outputs": [],
      "stateMutability": "nonpayable",
      "type": "function"
    },
    {
      "inputs": [
        {
          "internalType": "int96",
          "name": "ProposerflowRate",
          "type": "int96"
        },
        {
          "internalType": "int96",
          "name": "PlannerflowRate",
          "type": "int96"
        },
        {
          "internalType": "address",
          "name": "planner",
          "type": "address"
        }
      ],
      "name": "executePlannerProposal",
      "outputs": [],
      "stateMutability": "nonpayable",
      "type": "function"
    },
    {
      "inputs": [],
      "name": "idaV1",
      "outputs": [
        {
          "internalType": "contract ISuperfluid",
          "name": "host",
          "type": "address"
        },
        {
          "internalType": "contract IInstantDistributionAgreementV1",
          "name": "ida",
          "type": "address"
        }
      ],
      "stateMutability": "view",
      "type": "function"
    },
    {
      "inputs": [],
      "name": "lock",
      "outputs": [
        {
          "internalType": "contract IPublicLock",
          "name": "",
          "type": "address"
        }
      ],
      "stateMutability": "view",
      "type": "function"
    },
    {
      "inputs": [
        {
          "internalType": "uint256",
          "name": "",
          "type": "uint256"
        }
      ],
      "name": "plannersAddr",
      "outputs": [
        {
          "internalType": "address",
          "name": "",
          "type": "address"
        }
      ],
      "stateMutability": "view",
      "type": "function"
    },
    {
      "inputs": [
        {
          "internalType": "uint256",
          "name": "",
          "type": "uint256"
        }
      ],
      "name": "proposals",
      "outputs": [
        {
          "internalType": "uint256",
          "name": "proposalId",
          "type": "uint256"
        },
        {
          "internalType": "uint256",
          "name": "yesVotes",
          "type": "uint256"
        },
        {
          "internalType": "uint256",
          "name": "noVotes",
          "type": "uint256"
        },
        {
          "internalType": "address",
          "name": "proposer",
          "type": "address"
        },
        {
          "internalType": "string",
          "name": "description",
          "type": "string"
        },
        {
          "internalType": "bool",
          "name": "active",
          "type": "bool"
        },
        {
          "internalType": "bool",
          "name": "voted",
          "type": "bool"
        },
        {
          "internalType": "enum DAOCare.VoteType",
          "name": "vote",
          "type": "uint8"
        }
      ],
      "stateMutability": "view",
      "type": "function"
    },
    {
      "inputs": [
        {
          "internalType": "uint256",
          "name": "",
          "type": "uint256"
        }
      ],
      "name": "proposerAddress",
      "outputs": [
        {
          "internalType": "address",
          "name": "",
          "type": "address"
        }
      ],
      "stateMutability": "view",
      "type": "function"
    },
    {
      "inputs": [
        {
          "internalType": "uint128",
          "name": "_ProposerUnitShare",
          "type": "uint128"
        }
      ],
      "name": "setUnit",
      "outputs": [],
      "stateMutability": "nonpayable",
      "type": "function"
    },
    {
      "inputs": [
        {
          "internalType": "uint256",
          "name": "_thresholdAmount",
          "type": "uint256"
        }
      ],
      "name": "setVotingThreshold",
      "outputs": [],
      "stateMutability": "nonpayable",
      "type": "function"
    },
    {
      "inputs": [
        {
          "internalType": "uint256",
          "name": "_thresholdAmountMax",
          "type": "uint256"
        }
      ],
      "name": "setVotingThresholdMax",
      "outputs": [],
      "stateMutability": "nonpayable",
      "type": "function"
    },
    {
      "inputs": [
        {
          "internalType": "uint256",
          "name": "",
          "type": "uint256"
        }
      ],
      "name": "volunteers",
      "outputs": [
        {
          "internalType": "address",
          "name": "",
          "type": "address"
        }
      ],
      "stateMutability": "view",
      "type": "function"
    }
  ],
  "bytecode": "0x6101006040523480156200001257600080fd5b506040516200626538038062006265833981810160405281019062000038919062000927565b600073ffffffffffffffffffffffffffffffffffffffff168473ffffffffffffffffffffffffffffffffffffffff1603620000785762000077620009f9565b5b600073ffffffffffffffffffffffffffffffffffffffff168373ffffffffffffffffffffffffffffffffffffffff1603620000b857620000b7620009f9565b5b600073ffffffffffffffffffffffffffffffffffffffff168273ffffffffffffffffffffffffffffffffffffffff1603620000f857620000f7620009f9565b5b8673ffffffffffffffffffffffffffffffffffffffff1660808173ffffffffffffffffffffffffffffffffffffffff16815250508560a081815250506200016b856040516020016200014b919062000a75565b6040516020818303038152906040526200059d60201b6200201b1760201c565b60c081815250508273ffffffffffffffffffffffffffffffffffffffff1660e08173ffffffffffffffffffffffffffffffffffffffff168152505080600860006101000a81548173ffffffffffffffffffffffffffffffffffffffff021916908373ffffffffffffffffffffffffffffffffffffffff160217905550836000806101000a81548173ffffffffffffffffffffffffffffffffffffffff021916908373ffffffffffffffffffffffffffffffffffffffff16021790555060405180604001604052808573ffffffffffffffffffffffffffffffffffffffff1681526020018573ffffffffffffffffffffffffffffffffffffffff1663b6d200de7fa9214cc96615e0085d3bb077758db69497dc2dce3b2b1e97bc93c3d18d83efd36040518263ffffffff1660e01b8152600401620002a9919062000aa9565b602060405180830381865afa158015620002c7573d6000803e3d6000fd5b505050506040513d601f19601f82011682018060405250810190620002ed919062000b0b565b73ffffffffffffffffffffffffffffffffffffffff16815250600260008201518160000160006101000a81548173ffffffffffffffffffffffffffffffffffffffff021916908373ffffffffffffffffffffffffffffffffffffffff16021790555060208201518160010160006101000a81548173ffffffffffffffffffffffffffffffffffffffff021916908373ffffffffffffffffffffffffffffffffffffffff16021790555090505060405180604001604052808573ffffffffffffffffffffffffffffffffffffffff1681526020018573ffffffffffffffffffffffffffffffffffffffff1663b6d200de7f8aedc3b5d4bf031e11a7e2940f7251c005698405d58e02e1c247fed3b1b3a6746040518263ffffffff1660e01b81526004016200041b919062000aa9565b602060405180830381865afa15801562000439573d6000803e3d6000fd5b505050506040513d601f19601f820116820180604052508101906200045f919062000b0b565b73ffffffffffffffffffffffffffffffffffffffff16815250600460008201518160000160006101000a81548173ffffffffffffffffffffffffffffffffffffffff021916908373ffffffffffffffffffffffffffffffffffffffff16021790555060208201518160010160006101000a81548173ffffffffffffffffffffffffffffffffffffffff021916908373ffffffffffffffffffffffffffffffffffffffff1602179055509050508373ffffffffffffffffffffffffffffffffffffffff1663ad3915c864100000000064040000000064010000000060011717176040518263ffffffff1660e01b81526004016200055c919062000b4e565b600060405180830381600087803b1580156200057757600080fd5b505af11580156200058c573d6000803e3d6000fd5b505050505050505050505062000bd1565b6000600882604051602001620005b4919062000bb8565b6040516020818303038152906040528051906020012060001c901c9050919050565b6000604051905090565b600080fd5b600080fd5b600073ffffffffffffffffffffffffffffffffffffffff82169050919050565b60006200061782620005ea565b9050919050565b60006200062b826200060a565b9050919050565b6200063d816200061e565b81146200064957600080fd5b50565b6000815190506200065d8162000632565b92915050565b6000819050919050565b620006788162000663565b81146200068457600080fd5b50565b60008151905062000698816200066d565b92915050565b600080fd5b600080fd5b6000601f19601f8301169050919050565b7f4e487b7100000000000000000000000000000000000000000000000000000000600052604160045260246000fd5b620006f382620006a8565b810181811067ffffffffffffffff82111715620007155762000714620006b9565b5b80604052505050565b60006200072a620005d6565b9050620007388282620006e8565b919050565b600067ffffffffffffffff8211156200075b576200075a620006b9565b5b6200076682620006a8565b9050602081019050919050565b60005b838110156200079357808201518184015260208101905062000776565b83811115620007a3576000848401525b50505050565b6000620007c0620007ba846200073d565b6200071e565b905082815260208101848484011115620007df57620007de620006a3565b5b620007ec84828562000773565b509392505050565b600082601f8301126200080c576200080b6200069e565b5b81516200081e848260208601620007a9565b91505092915050565b600062000834826200060a565b9050919050565b620008468162000827565b81146200085257600080fd5b50565b60008151905062000866816200083b565b92915050565b600062000879826200060a565b9050919050565b6200088b816200086c565b81146200089757600080fd5b50565b600081519050620008ab8162000880565b92915050565b620008bc816200060a565b8114620008c857600080fd5b50565b600081519050620008dc81620008b1565b92915050565b6000620008ef826200060a565b9050919050565b6200090181620008e2565b81146200090d57600080fd5b50565b6000815190506200092181620008f6565b92915050565b600080600080600080600060e0888a031215620009495762000948620005e0565b5b6000620009598a828b016200064c565b97505060206200096c8a828b0162000687565b965050604088015167ffffffffffffffff81111562000990576200098f620005e5565b5b6200099e8a828b01620007f4565b9550506060620009b18a828b0162000855565b9450506080620009c48a828b016200089a565b93505060a0620009d78a828b01620008cb565b92505060c0620009ea8a828b0162000910565b91505092959891949750929550565b7f4e487b7100000000000000000000000000000000000000000000000000000000600052600160045260246000fd5b600081519050919050565b600081905092915050565b600062000a4b8262000a28565b62000a57818562000a33565b935062000a6981856020860162000773565b80840191505092915050565b600062000a83828462000a3e565b915081905092915050565b6000819050919050565b62000aa38162000a8e565b82525050565b600060208201905062000ac0600083018462000a98565b92915050565b600062000ad3826200060a565b9050919050565b62000ae58162000ac6565b811462000af157600080fd5b50565b60008151905062000b058162000ada565b92915050565b60006020828403121562000b245762000b23620005e0565b5b600062000b348482850162000af4565b91505092915050565b62000b488162000663565b82525050565b600060208201905062000b65600083018462000b3d565b92915050565b600081519050919050565b600081905092915050565b600062000b8e8262000b6b565b62000b9a818562000b76565b935062000bac81856020860162000773565b80840191505092915050565b600062000bc6828462000b81565b915081905092915050565b60805160a05160c05160e0516155e362000c82600039600081816107600152818161079f0152818161096b01528181610a2101528181610afc01528181610b3401528181610f560152818161126a0152818161159e01528181611bb501528181611cdb01528181611d65015281816121590152818161221e0152818161235201528181612405015281816124ac0152612fd90152600061185201526000611808015260006117cb01526155e36000f3fe608060405234801561001057600080fd5b50600436106101da5760003560e01c806372942b8511610104578063b598c4dc116100a2578063e828ed2711610071578063e828ed2714610580578063e8de3d711461059c578063ede5356f146105b8578063f83d08ba146105d4576101da565b8063b598c4dc1461050c578063d86ed3e51461052a578063df6286a91461055a578063e4fc6b6d14610576576101da565b8063852e5a0a116100de578063852e5a0a1461045e578063884d1f401461047c5780639fdfe7bd146104ac578063b4d5ab94146104dc576101da565b806372942b85146103f6578063836761e01461042657806383dff64414610442576101da565b8063381f36101161017c57806353c11f991161014b57806353c11f991461035b57806355586a311461038b5780635f9e7d77146103aa578063668bbcfb146103da576101da565b8063381f3610146102d75780633dbf8cc5146102f3578063413a67d51461032357806349c2a1a61461033f576101da565b8063230dbd29116101b8578063230dbd2914610251578063285742f51461028157806330d9c9151461028b578063369746ba146102bb576101da565b8063013cf08b146101df5780631cc8ca99146102165780632268cacb14610235575b600080fd5b6101f960048036038101906101f49190613a41565b6105f2565b60405161020d989796959493929190613be9565b60405180910390f35b61021e610709565b60405161022c929190613cee565b60405180910390f35b61024f600480360381019061024a9190613d43565b61075b565b005b61026b60048036038101906102669190613e49565b610799565b6040516102789190613f8d565b60405180910390f35b610289610966565b005b6102a560048036038101906102a09190613faf565b61099f565b6040516102b29190613f8d565b60405180910390f35b6102d560048036038101906102d091906140a4565b6109dc565b005b6102f160048036038101906102ec9190614227565b610b6d565b005b61030d60048036038101906103089190613a41565b610c9a565b60405161031a9190614283565b60405180910390f35b61033d6004803603810190610338919061429e565b610cd9565b005b610359600480360381019061035491906142de565b610dac565b005b61037560048036038101906103709190613e49565b610ec8565b6040516103829190613f8d565b60405180910390f35b610393611080565b6040516103a1929190614348565b60405180910390f35b6103c460048036038101906103bf9190613faf565b6110d2565b6040516103d19190613f8d565b60405180910390f35b6103f460048036038101906103ef9190613d43565b61110f565b005b610410600480360381019061040b9190613a41565b6111bb565b60405161041d9190614283565b60405180910390f35b610440600480360381019061043b9190613a41565b6111fa565b005b61045c600480360381019061045791906143b9565b611204565b005b610466611240565b60405161047391906143e6565b60405180910390f35b61049660048036038101906104919190613faf565b611264565b6040516104a39190613f8d565b60405180910390f35b6104c660048036038101906104c19190613a41565b6114f4565b6040516104d39190614283565b60405180910390f35b6104f660048036038101906104f19190613a41565b611533565b6040516105039190614283565b60405180910390f35b610514611572565b6040516105219190614283565b60405180910390f35b610544600480360381019061053f9190613e49565b611598565b6040516105519190613f8d565b60405180910390f35b610574600480360381019061056f9190614448565b611771565b005b61057e611bb1565b005b61059a60048036038101906105959190613a41565b611d9d565b005b6105b660048036038101906105b1919061429e565b611da7565b005b6105d260048036038101906105cd9190614227565b611ec8565b005b6105dc611ff5565b6040516105e991906144f7565b60405180910390f35b600d6020528060005260406000206000915090508060000154908060010154908060020154908060030160009054906101000a900473ffffffffffffffffffffffffffffffffffffffff169080600401805461064d90614541565b80601f016020809104026020016040519081016040528092919081815260200182805461067990614541565b80156106c65780601f1061069b576101008083540402835291602001916106c6565b820191906000526020600020905b8154815290600101906020018083116106a957829003601f168201915b5050505050908060050160009054906101000a900460ff16908060050160019054906101000a900460ff16908060050160029054906101000a900460ff16905088565b60048060000160009054906101000a900473ffffffffffffffffffffffffffffffffffffffff16908060010160009054906101000a900473ffffffffffffffffffffffffffffffffffffffff16905082565b6107967f000000000000000000000000000000000000000000000000000000000000000030600084600461205290949392919063ffffffff16565b50565b606089897f000000000000000000000000000000000000000000000000000000000000000073ffffffffffffffffffffffffffffffffffffffff168273ffffffffffffffffffffffffffffffffffffffff1614610822576040517fc1ab6dc100000000000000000000000000000000000000000000000000000000815260040160405180910390fd5b600260010160009054906101000a900473ffffffffffffffffffffffffffffffffffffffff1673ffffffffffffffffffffffffffffffffffffffff168173ffffffffffffffffffffffffffffffffffffffff16146108ac576040517ffe1da89a00000000000000000000000000000000000000000000000000000000815260040160405180910390fd5b600260000160009054906101000a900473ffffffffffffffffffffffffffffffffffffffff1673ffffffffffffffffffffffffffffffffffffffff163373ffffffffffffffffffffffffffffffffffffffff1614610936576040517f82b4290000000000000000000000000000000000000000000000000000000000815260040160405180910390fd5b600087878101906109479190613a41565b90506109548187876120b4565b93505050509998505050505050505050565b61099d7f0000000000000000000000000000000000000000000000000000000000000000600060046124ee9092919063ffffffff16565b565b60606040517f08c379a00000000000000000000000000000000000000000000000000000000081526004016109d3906145e4565b60405180910390fd5b6000600260010160009054906101000a900473ffffffffffffffffffffffffffffffffffffffff1673ffffffffffffffffffffffffffffffffffffffff1663e6a1e8887f000000000000000000000000000000000000000000000000000000000000000030600960009054906101000a900473ffffffffffffffffffffffffffffffffffffffff166040518463ffffffff1660e01b8152600401610a8293929190614625565b608060405180830381865afa158015610a9f573d6000803e3d6000fd5b505050506040513d601f19601f82011682018060405250810190610ac39190614686565b5050915050600081600b0b1315610b6757610b2e600960009054906101000a900473ffffffffffffffffffffffffffffffffffffffff167f000000000000000000000000000000000000000000000000000000000000000086600261254c909392919063ffffffff16565b610b66827f00000000000000000000000000000000000000000000000000000000000000008560026125ac909392919063ffffffff16565b5b50505050565b6000601260003373ffffffffffffffffffffffffffffffffffffffff1673ffffffffffffffffffffffffffffffffffffffff168152602001908152602001600020905081816000019080519060200190610bc8929190613954565b50338160010160006101000a81548173ffffffffffffffffffffffffffffffffffffffff021916908373ffffffffffffffffffffffffffffffffffffffff16021790555060008160010160146101000a81548160ff0219169083151502179055508281600201819055506011339080600181540180825580915050600190039060005260206000200160009091909190916101000a81548173ffffffffffffffffffffffffffffffffffffffff021916908373ffffffffffffffffffffffffffffffffffffffff160217905550505050565b60118181548110610caa57600080fd5b906000526020600020016000915054906101000a900473ffffffffffffffffffffffffffffffffffffffff1681565b6000600d600084815260200190815260200160002090503373ffffffffffffffffffffffffffffffffffffffff168160030160009054906101000a900473ffffffffffffffffffffffffffffffffffffffff1673ffffffffffffffffffffffffffffffffffffffff1614610d4c57600080fd5b6001601260008473ffffffffffffffffffffffffffffffffffffffff1673ffffffffffffffffffffffffffffffffffffffff16815260200190815260200160002060010160146101000a81548160ff021916908315150217905550505050565b6000600d6000601054815260200190815260200160002090506010548160000181905550338160030160006101000a81548173ffffffffffffffffffffffffffffffffffffffff021916908373ffffffffffffffffffffffffffffffffffffffff16021790555081816004019080519060200190610e2b929190613954565b5060008160050160006101000a81548160ff021916908315150217905550600e339080600181540180825580915050600190039060005260206000200160009091909190916101000a81548173ffffffffffffffffffffffffffffffffffffffff021916908373ffffffffffffffffffffffffffffffffffffffff16021790555060106000815480929190610ebf9061471c565b91905055505050565b6060600260000160009054906101000a900473ffffffffffffffffffffffffffffffffffffffff1673ffffffffffffffffffffffffffffffffffffffff163373ffffffffffffffffffffffffffffffffffffffff1614610f54576040517f82b4290000000000000000000000000000000000000000000000000000000000815260040160405180910390fd5b7f000000000000000000000000000000000000000000000000000000000000000073ffffffffffffffffffffffffffffffffffffffff168a73ffffffffffffffffffffffffffffffffffffffff161415806110005750600260010160009054906101000a900473ffffffffffffffffffffffffffffffffffffffff1673ffffffffffffffffffffffffffffffffffffffff168973ffffffffffffffffffffffffffffffffffffffff1614155b156110515782828080601f016020809104026020016040519081016040528093929190818152602001838380828437600081840152601f19601f820116905080830192505050505050509050611073565b600085858101906110629190613a41565b905061106f8185856120b4565b9150505b9998505050505050505050565b60028060000160009054906101000a900473ffffffffffffffffffffffffffffffffffffffff16908060010160009054906101000a900473ffffffffffffffffffffffffffffffffffffffff16905082565b60606040517f08c379a0000000000000000000000000000000000000000000000000000000008152600401611106906147d6565b60405180910390fd5b6000600a60003373ffffffffffffffffffffffffffffffffffffffff1673ffffffffffffffffffffffffffffffffffffffff168152602001908152602001600020905080600301829080600181540180825580915050600190039060005260206000200160009091909190916101000a81548173ffffffffffffffffffffffffffffffffffffffff021916908373ffffffffffffffffffffffffffffffffffffffff1602179055505050565b600e81815481106111cb57600080fd5b906000526020600020016000915054906101000a900473ffffffffffffffffffffffffffffffffffffffff1681565b8060068190555050565b80600760006101000a8154816fffffffffffffffffffffffffffffffff02191690836fffffffffffffffffffffffffffffffff16021790555050565b60008054906101000a900473ffffffffffffffffffffffffffffffffffffffff1681565b606087877f000000000000000000000000000000000000000000000000000000000000000073ffffffffffffffffffffffffffffffffffffffff168273ffffffffffffffffffffffffffffffffffffffff16146112ed576040517fc1ab6dc100000000000000000000000000000000000000000000000000000000815260040160405180910390fd5b600260010160009054906101000a900473ffffffffffffffffffffffffffffffffffffffff1673ffffffffffffffffffffffffffffffffffffffff168173ffffffffffffffffffffffffffffffffffffffff1614611377576040517ffe1da89a00000000000000000000000000000000000000000000000000000000815260040160405180910390fd5b600260000160009054906101000a900473ffffffffffffffffffffffffffffffffffffffff1673ffffffffffffffffffffffffffffffffffffffff163373ffffffffffffffffffffffffffffffffffffffff1614611401576040517f82b4290000000000000000000000000000000000000000000000000000000000815260040160405180910390fd5b60008060009054906101000a900473ffffffffffffffffffffffffffffffffffffffff1673ffffffffffffffffffffffffffffffffffffffff16633f6c923a87876040518363ffffffff1660e01b815260040161145f929190614823565b600060405180830381865afa15801561147c573d6000803e3d6000fd5b505050506040513d6000823e3d601f19601f820116820180604052508101906114a59190614b34565b905060008160a001518060200190518101906114c19190614b7d565b9050806040516020016114d49190614baa565b604051602081830303815290604052945050505050979650505050505050565b600f818154811061150457600080fd5b906000526020600020016000915054906101000a900473ffffffffffffffffffffffffffffffffffffffff1681565b600b818154811061154357600080fd5b906000526020600020016000915054906101000a900473ffffffffffffffffffffffffffffffffffffffff1681565b600960009054906101000a900473ffffffffffffffffffffffffffffffffffffffff1681565b606089897f000000000000000000000000000000000000000000000000000000000000000073ffffffffffffffffffffffffffffffffffffffff168273ffffffffffffffffffffffffffffffffffffffff1614611621576040517fc1ab6dc100000000000000000000000000000000000000000000000000000000815260040160405180910390fd5b600260010160009054906101000a900473ffffffffffffffffffffffffffffffffffffffff1673ffffffffffffffffffffffffffffffffffffffff168173ffffffffffffffffffffffffffffffffffffffff16146116ab576040517ffe1da89a00000000000000000000000000000000000000000000000000000000815260040160405180910390fd5b600260000160009054906101000a900473ffffffffffffffffffffffffffffffffffffffff1673ffffffffffffffffffffffffffffffffffffffff163373ffffffffffffffffffffffffffffffffffffffff1614611735576040517f82b4290000000000000000000000000000000000000000000000000000000000815260040160405180910390fd5b600087878101906117469190613a41565b90506117538187876120b4565b935061175f818561260c565b93505050509998505050505050505050565b6001600083815260200190815260200160002060009054906101000a900460ff16156117c9576040517f5d904cb200000000000000000000000000000000000000000000000000000000815260040160405180910390fd5b7f000000000000000000000000000000000000000000000000000000000000000073ffffffffffffffffffffffffffffffffffffffff16633bc778e3847f000000000000000000000000000000000000000000000000000000000000000061184f8860405160200161183b9190614c0d565b60405160208183030381529060405261201b565b867f0000000000000000000000000000000000000000000000000000000000000000876040518763ffffffff1660e01b815260040161189396959493929190614c39565b60006040518083038186803b1580156118ab57600080fd5b505afa1580156118bf573d6000803e3d6000fd5b50505050600180600084815260200190815260200160002060006101000a81548160ff0219169083151502179055506000600d60008881526020019081526020016000209050600015158160050160009054906101000a900460ff1615151461195d576040517f08c379a000000000000000000000000000000000000000000000000000000000815260040161195490614d0d565b60405180910390fd5b60001515600c60003373ffffffffffffffffffffffffffffffffffffffff1673ffffffffffffffffffffffffffffffffffffffff16815260200190815260200160002060008360050160019054906101000a900460ff1615151515815260200190815260200160002060009054906101000a900460ff16151514611a16576040517f08c379a0000000000000000000000000000000000000000000000000000000008152600401611a0d90614d79565b60405180910390fd5b60006001811115611a2a57611a29613b72565b5b866001811115611a3d57611a3c613b72565b5b03611ae1576001600c60003373ffffffffffffffffffffffffffffffffffffffff1673ffffffffffffffffffffffffffffffffffffffff16815260200190815260200160002060008360050160019054906101000a900460ff1615151515815260200190815260200160002060006101000a81548160ff0219169083151502179055506001816001016000828254611ad59190614d99565b92505081905550611ba8565b600180811115611af457611af3613b72565b5b866001811115611b0757611b06613b72565b5b03611ba7576001600c60003373ffffffffffffffffffffffffffffffffffffffff1673ffffffffffffffffffffffffffffffffffffffff16815260200190815260200160002060008360050160019054906101000a900460ff1615151515815260200190815260200160002060006101000a81548160ff0219169083151502179055506001816002016000828254611b9f9190614d99565b925050819055505b5b50505050505050565b60007f000000000000000000000000000000000000000000000000000000000000000073ffffffffffffffffffffffffffffffffffffffff1663eb3537cc30426040518363ffffffff1660e01b8152600401611c0e929190614def565b606060405180830381865afa158015611c2b573d6000803e3d6000fd5b505050506040513d601f19601f82011682018060405250810190611c4f9190614e18565b5050905060008113611c96576040517f08c379a0000000000000000000000000000000000000000000000000000000008152600401611c8d90614edd565b60405180910390fd5b6000600460010160009054906101000a900473ffffffffffffffffffffffffffffffffffffffff1673ffffffffffffffffffffffffffffffffffffffff1663899baaec7f0000000000000000000000000000000000000000000000000000000000000000306000866040518563ffffffff1660e01b8152600401611d1d9493929190614f1c565b6040805180830381865afa158015611d39573d6000803e3d6000fd5b505050506040513d601f19601f82011682018060405250810190611d5d9190614f76565b509050611d997f00000000000000000000000000000000000000000000000000000000000000006000836004612751909392919063ffffffff16565b5050565b8060138190555050565b6000600d600084815260200190815260200160002090506000600a60008473ffffffffffffffffffffffffffffffffffffffff1673ffffffffffffffffffffffffffffffffffffffff16815260200190815260200160002090503373ffffffffffffffffffffffffffffffffffffffff168260030160009054906101000a900473ffffffffffffffffffffffffffffffffffffffff1673ffffffffffffffffffffffffffffffffffffffff1614611e5d57600080fd5b80600201339080600181540180825580915050600190039060005260206000200160009091909190916101000a81548173ffffffffffffffffffffffffffffffffffffffff021916908373ffffffffffffffffffffffffffffffffffffffff16021790555050505050565b6000600a60003373ffffffffffffffffffffffffffffffffffffffff1673ffffffffffffffffffffffffffffffffffffffff1681526020019081526020016000209050338160000160006101000a81548173ffffffffffffffffffffffffffffffffffffffff021916908373ffffffffffffffffffffffffffffffffffffffff16021790555081816001019080519060200190611f66929190613954565b5060008160050160006101000a81548160ff021916908315150217905550828160040181905550600b339080600181540180825580915050600190039060005260206000200160009091909190916101000a81548173ffffffffffffffffffffffffffffffffffffffff021916908373ffffffffffffffffffffffffffffffffffffffff160217905550505050565b600860009054906101000a900473ffffffffffffffffffffffffffffffffffffffff1681565b60006008826040516020016120309190614ff2565b6040516020818303038152906040528051906020012060001c901c9050919050565b6120ad8585858585600067ffffffffffffffff811115612075576120746140fc565b5b6040519080825280601f01601f1916602001820160405280156120a75781602001600182028036833780820191505090505b506127b1565b5050505050565b606082828080601f016020809104026020016040519081016040528093929190818152602001838380828437600081840152601f19601f8201169050808301925050505050505090506000600d600086815260200190815260200160002090506000600260010160009054906101000a900473ffffffffffffffffffffffffffffffffffffffff1673ffffffffffffffffffffffffffffffffffffffff1663e8e7e2d17f0000000000000000000000000000000000000000000000000000000000000000306040518363ffffffff1660e01b8152600401612196929190615009565b602060405180830381865afa1580156121b3573d6000803e3d6000fd5b505050506040513d601f19601f820116820180604052508101906121d79190615032565b90506000600260010160009054906101000a900473ffffffffffffffffffffffffffffffffffffffff1673ffffffffffffffffffffffffffffffffffffffff1663e6a1e8887f0000000000000000000000000000000000000000000000000000000000000000308660030160009054906101000a900473ffffffffffffffffffffffffffffffffffffffff166040518463ffffffff1660e01b815260040161228193929190614625565b608060405180830381865afa15801561229e573d6000803e3d6000fd5b505050506040513d601f19601f820116820180604052508101906122c29190614686565b5050915050600081836122d5919061505f565b9050600081600b0b0361238b5761238487878080601f016020809104026020016040519081016040528093929190818152602001838380828437600081840152601f19601f82011690508083019250505050505050308660030160009054906101000a900473ffffffffffffffffffffffffffffffffffffffff167f0000000000000000000000000000000000000000000000000000000000000000600261296e90949392919063ffffffff16565b94506124e3565b600082600b0b1461243f5761243887878080601f016020809104026020016040519081016040528093929190818152602001838380828437600081840152601f19601f820116905080830192505050505050508560030160009054906101000a900473ffffffffffffffffffffffffffffffffffffffff167f00000000000000000000000000000000000000000000000000000000000000008460026129d690949392919063ffffffff16565b94506124e2565b6124df87878080601f016020809104026020016040519081016040528093929190818152602001838380828437600081840152601f19601f82011690508083019250505050505050600960009054906101000a900473ffffffffffffffffffffffffffffffffffffffff167f0000000000000000000000000000000000000000000000000000000000000000846002612a3e90949392919063ffffffff16565b94505b5b505050509392505050565b612547838383600067ffffffffffffffff81111561250f5761250e6140fc565b5b6040519080825280601f01601f1916602001820160405280156125415781602001600182028036833780820191505090505b50612aa6565b505050565b6125a684848484600067ffffffffffffffff81111561256e5761256d6140fc565b5b6040519080825280601f01601f1916602001820160405280156125a05781602001600182028036833780820191505090505b50612c5d565b50505050565b61260684848484600067ffffffffffffffff8111156125ce576125cd6140fc565b5b6040519080825280601f01601f1916602001820160405280156126005781602001600182028036833780820191505090505b50612e17565b50505050565b60606000600d60008581526020019081526020016000209050600015158160050160009054906101000a900460ff1615151461267d576040517f08c379a000000000000000000000000000000000000000000000000000000000815260040161267490614d0d565b60405180910390fd5b6000816002015482600101546126939190614d99565b9050600081606484600101546126a991906150df565b6126b39190615168565b905060065481116126c357600080fd5b60018360050160006101000a81548160ff0219169083151502179055506000601354821061271157600760009054906101000a90046fffffffffffffffffffffffffffffffff169050612716565b600190505b6127458460030160009054906101000a900473ffffffffffffffffffffffffffffffffffffffff168288612fd1565b94505050505092915050565b6127ab84848484600067ffffffffffffffff811115612773576127726140fc565b5b6040519080825280601f01601f1916602001820160405280156127a55781602001600182028036833780820191505090505b50613019565b50505050565b8560000160009054906101000a900473ffffffffffffffffffffffffffffffffffffffff1673ffffffffffffffffffffffffffffffffffffffff166339255d5b8760010160009054906101000a900473ffffffffffffffffffffffffffffffffffffffff168860010160009054906101000a900473ffffffffffffffffffffffffffffffffffffffff1673ffffffffffffffffffffffffffffffffffffffff16632e5e74c689898989600067ffffffffffffffff811115612875576128746140fc565b5b6040519080825280601f01601f1916602001820160405280156128a75781602001600182028036833780820191505090505b506040516024016128bc9594939291906151ba565b604051602081830303815290604052915060e01b6020820180517bffffffffffffffffffffffffffffffffffffffffffffffffffffffff8381831617835250505050846040518463ffffffff1660e01b815260040161291d93929190615214565b6000604051808303816000875af115801561293c573d6000803e3d6000fd5b505050506040513d6000823e3d601f19601f820116820180604052508101906129659190615259565b50505050505050565b60606129cb8686868686600067ffffffffffffffff811115612993576129926140fc565b5b6040519080825280601f01601f1916602001820160405280156129c55781602001600182028036833780820191505090505b506131d3565b905095945050505050565b6060612a338686868686600067ffffffffffffffff8111156129fb576129fa6140fc565b5b6040519080825280601f01601f191660200182016040528015612a2d5781602001600182028036833780820191505090505b50613398565b905095945050505050565b6060612a9b8686868686600067ffffffffffffffff811115612a6357612a626140fc565b5b6040519080825280601f01601f191660200182016040528015612a955781602001600182028036833780820191505090505b5061355d565b905095945050505050565b8360000160009054906101000a900473ffffffffffffffffffffffffffffffffffffffff1673ffffffffffffffffffffffffffffffffffffffff166339255d5b8560010160009054906101000a900473ffffffffffffffffffffffffffffffffffffffff168660010160009054906101000a900473ffffffffffffffffffffffffffffffffffffffff1673ffffffffffffffffffffffffffffffffffffffff1663d787840a8787600067ffffffffffffffff811115612b6857612b676140fc565b5b6040519080825280601f01601f191660200182016040528015612b9a5781602001600182028036833780820191505090505b50604051602401612bad939291906152a2565b604051602081830303815290604052915060e01b6020820180517bffffffffffffffffffffffffffffffffffffffffffffffffffffffff8381831617835250505050846040518463ffffffff1660e01b8152600401612c0e93929190615214565b6000604051808303816000875af1158015612c2d573d6000803e3d6000fd5b505050506040513d6000823e3d601f19601f82011682018060405250810190612c569190615259565b5050505050565b8460000160009054906101000a900473ffffffffffffffffffffffffffffffffffffffff1673ffffffffffffffffffffffffffffffffffffffff166339255d5b8660010160009054906101000a900473ffffffffffffffffffffffffffffffffffffffff168760010160009054906101000a900473ffffffffffffffffffffffffffffffffffffffff1673ffffffffffffffffffffffffffffffffffffffff166350209a62878988600067ffffffffffffffff811115612d2057612d1f6140fc565b5b6040519080825280601f01601f191660200182016040528015612d525781602001600182028036833780820191505090505b50604051602401612d6694939291906152ef565b604051602081830303815290604052915060e01b6020820180517bffffffffffffffffffffffffffffffffffffffffffffffffffffffff8381831617835250505050846040518463ffffffff1660e01b8152600401612dc79392919061533b565b6000604051808303816000875af1158015612de6573d6000803e3d6000fd5b505050506040513d6000823e3d601f19601f82011682018060405250810190612e0f9190615259565b505050505050565b8460000160009054906101000a900473ffffffffffffffffffffffffffffffffffffffff1673ffffffffffffffffffffffffffffffffffffffff166339255d5b8660010160009054906101000a900473ffffffffffffffffffffffffffffffffffffffff168760010160009054906101000a900473ffffffffffffffffffffffffffffffffffffffff1673ffffffffffffffffffffffffffffffffffffffff166362fc305e878988600067ffffffffffffffff811115612eda57612ed96140fc565b5b6040519080825280601f01601f191660200182016040528015612f0c5781602001600182028036833780820191505090505b50604051602401612f2094939291906152ef565b604051602081830303815290604052915060e01b6020820180517bffffffffffffffffffffffffffffffffffffffffffffffffffffffff8381831617835250505050846040518463ffffffff1660e01b8152600401612f819392919061533b565b6000604051808303816000875af1158015612fa0573d6000803e3d6000fd5b505050506040513d6000823e3d601f19601f82011682018060405250810190612fc99190615259565b505050505050565b6060613010827f00000000000000000000000000000000000000000000000000000000000000006000878760046137229095949392919063ffffffff16565b90509392505050565b8460000160009054906101000a900473ffffffffffffffffffffffffffffffffffffffff1673ffffffffffffffffffffffffffffffffffffffff166339255d5b8660010160009054906101000a900473ffffffffffffffffffffffffffffffffffffffff168760010160009054906101000a900473ffffffffffffffffffffffffffffffffffffffff1673ffffffffffffffffffffffffffffffffffffffff1663b96731c2888888600067ffffffffffffffff8111156130dc576130db6140fc565b5b6040519080825280601f01601f19166020018201604052801561310e5781602001600182028036833780820191505090505b506040516024016131229493929190615380565b604051602081830303815290604052915060e01b6020820180517bffffffffffffffffffffffffffffffffffffffffffffffffffffffff8381831617835250505050846040518463ffffffff1660e01b815260040161318393929190615214565b6000604051808303816000875af11580156131a2573d6000803e3d6000fd5b505050506040513d6000823e3d601f19601f820116820180604052508101906131cb9190615259565b505050505050565b60608660000160009054906101000a900473ffffffffffffffffffffffffffffffffffffffff1673ffffffffffffffffffffffffffffffffffffffff16634329d2938860010160009054906101000a900473ffffffffffffffffffffffffffffffffffffffff168960010160009054906101000a900473ffffffffffffffffffffffffffffffffffffffff1673ffffffffffffffffffffffffffffffffffffffff1663b4b333c6878a8a600067ffffffffffffffff811115613298576132976140fc565b5b6040519080825280601f01601f1916602001820160405280156132ca5781602001600182028036833780820191505090505b506040516024016132de94939291906153cc565b604051602081830303815290604052915060e01b6020820180517bffffffffffffffffffffffffffffffffffffffffffffffffffffffff8381831617835250505050858a6040518563ffffffff1660e01b81526004016133419493929190615418565b6000604051808303816000875af1158015613360573d6000803e3d6000fd5b505050506040513d6000823e3d601f19601f820116820180604052508101906133899190615472565b50809150509695505050505050565b60608660000160009054906101000a900473ffffffffffffffffffffffffffffffffffffffff1673ffffffffffffffffffffffffffffffffffffffff16634329d2938860010160009054906101000a900473ffffffffffffffffffffffffffffffffffffffff168960010160009054906101000a900473ffffffffffffffffffffffffffffffffffffffff1673ffffffffffffffffffffffffffffffffffffffff166350209a62888a89600067ffffffffffffffff81111561345d5761345c6140fc565b5b6040519080825280601f01601f19166020018201604052801561348f5781602001600182028036833780820191505090505b506040516024016134a394939291906152ef565b604051602081830303815290604052915060e01b6020820180517bffffffffffffffffffffffffffffffffffffffffffffffffffffffff8381831617835250505050858a6040518563ffffffff1660e01b81526004016135069493929190615418565b6000604051808303816000875af1158015613525573d6000803e3d6000fd5b505050506040513d6000823e3d601f19601f8201168201806040525081019061354e9190615472565b50809150509695505050505050565b60608660000160009054906101000a900473ffffffffffffffffffffffffffffffffffffffff1673ffffffffffffffffffffffffffffffffffffffff16634329d2938860010160009054906101000a900473ffffffffffffffffffffffffffffffffffffffff168960010160009054906101000a900473ffffffffffffffffffffffffffffffffffffffff1673ffffffffffffffffffffffffffffffffffffffff166362fc305e888a89600067ffffffffffffffff811115613622576136216140fc565b5b6040519080825280601f01601f1916602001820160405280156136545781602001600182028036833780820191505090505b5060405160240161366894939291906152ef565b604051602081830303815290604052915060e01b6020820180517bffffffffffffffffffffffffffffffffffffffffffffffffffffffff8381831617835250505050858a6040518563ffffffff1660e01b81526004016136cb9493929190615418565b6000604051808303816000875af11580156136ea573d6000803e3d6000fd5b505050506040513d6000823e3d601f19601f820116820180604052508101906137139190615472565b50809150509695505050505050565b6060613780878787878787600067ffffffffffffffff811115613748576137476140fc565b5b6040519080825280601f01601f19166020018201604052801561377a5781602001600182028036833780820191505090505b5061378c565b90509695505050505050565b60608760000160009054906101000a900473ffffffffffffffffffffffffffffffffffffffff1673ffffffffffffffffffffffffffffffffffffffff16634329d2938960010160009054906101000a900473ffffffffffffffffffffffffffffffffffffffff168a60010160009054906101000a900473ffffffffffffffffffffffffffffffffffffffff1673ffffffffffffffffffffffffffffffffffffffff1663232d2b588a8a8a8a600067ffffffffffffffff811115613852576138516140fc565b5b6040519080825280601f01601f1916602001820160405280156138845781602001600182028036833780820191505090505b506040516024016138999594939291906154f9565b604051602081830303815290604052915060e01b6020820180517bffffffffffffffffffffffffffffffffffffffffffffffffffffffff8381831617835250505050858b6040518563ffffffff1660e01b81526004016138fc9493929190615553565b6000604051808303816000875af115801561391b573d6000803e3d6000fd5b505050506040513d6000823e3d601f19601f820116820180604052508101906139449190615472565b5080915050979650505050505050565b82805461396090614541565b90600052602060002090601f01602090048101928261398257600085556139c9565b82601f1061399b57805160ff19168380011785556139c9565b828001600101855582156139c9579182015b828111156139c85782518255916020019190600101906139ad565b5b5090506139d691906139da565b5090565b5b808211156139f35760008160009055506001016139db565b5090565b6000604051905090565b600080fd5b600080fd5b6000819050919050565b613a1e81613a0b565b8114613a2957600080fd5b50565b600081359050613a3b81613a15565b92915050565b600060208284031215613a5757613a56613a01565b5b6000613a6584828501613a2c565b91505092915050565b613a7781613a0b565b82525050565b600073ffffffffffffffffffffffffffffffffffffffff82169050919050565b6000613aa882613a7d565b9050919050565b613ab881613a9d565b82525050565b600081519050919050565b600082825260208201905092915050565b60005b83811015613af8578082015181840152602081019050613add565b83811115613b07576000848401525b50505050565b6000601f19601f8301169050919050565b6000613b2982613abe565b613b338185613ac9565b9350613b43818560208601613ada565b613b4c81613b0d565b840191505092915050565b60008115159050919050565b613b6c81613b57565b82525050565b7f4e487b7100000000000000000000000000000000000000000000000000000000600052602160045260246000fd5b60028110613bb257613bb1613b72565b5b50565b6000819050613bc382613ba1565b919050565b6000613bd382613bb5565b9050919050565b613be381613bc8565b82525050565b600061010082019050613bff600083018b613a6e565b613c0c602083018a613a6e565b613c196040830189613a6e565b613c266060830188613aaf565b8181036080830152613c388187613b1e565b9050613c4760a0830186613b63565b613c5460c0830185613b63565b613c6160e0830184613bda565b9998505050505050505050565b6000819050919050565b6000613c93613c8e613c8984613a7d565b613c6e565b613a7d565b9050919050565b6000613ca582613c78565b9050919050565b6000613cb782613c9a565b9050919050565b613cc781613cac565b82525050565b6000613cd882613c9a565b9050919050565b613ce881613ccd565b82525050565b6000604082019050613d036000830185613cbe565b613d106020830184613cdf565b9392505050565b613d2081613a9d565b8114613d2b57600080fd5b50565b600081359050613d3d81613d17565b92915050565b600060208284031215613d5957613d58613a01565b5b6000613d6784828501613d2e565b91505092915050565b6000613d7b82613a9d565b9050919050565b613d8b81613d70565b8114613d9657600080fd5b50565b600081359050613da881613d82565b92915050565b6000819050919050565b613dc181613dae565b8114613dcc57600080fd5b50565b600081359050613dde81613db8565b92915050565b600080fd5b600080fd5b600080fd5b60008083601f840112613e0957613e08613de4565b5b8235905067ffffffffffffffff811115613e2657613e25613de9565b5b602083019150836001820283011115613e4257613e41613dee565b5b9250929050565b600080600080600080600080600060c08a8c031215613e6b57613e6a613a01565b5b6000613e798c828d01613d99565b9950506020613e8a8c828d01613d2e565b9850506040613e9b8c828d01613dcf565b97505060608a013567ffffffffffffffff811115613ebc57613ebb613a06565b5b613ec88c828d01613df3565b965096505060808a013567ffffffffffffffff811115613eeb57613eea613a06565b5b613ef78c828d01613df3565b945094505060a08a013567ffffffffffffffff811115613f1a57613f19613a06565b5b613f268c828d01613df3565b92509250509295985092959850929598565b600081519050919050565b600082825260208201905092915050565b6000613f5f82613f38565b613f698185613f43565b9350613f79818560208601613ada565b613f8281613b0d565b840191505092915050565b60006020820190508181036000830152613fa78184613f54565b905092915050565b600080600080600080600060a0888a031215613fce57613fcd613a01565b5b6000613fdc8a828b01613d99565b9750506020613fed8a828b01613d2e565b9650506040613ffe8a828b01613dcf565b955050606088013567ffffffffffffffff81111561401f5761401e613a06565b5b61402b8a828b01613df3565b9450945050608088013567ffffffffffffffff81111561404e5761404d613a06565b5b61405a8a828b01613df3565b925092505092959891949750929550565b600081600b0b9050919050565b6140818161406b565b811461408c57600080fd5b50565b60008135905061409e81614078565b92915050565b6000806000606084860312156140bd576140bc613a01565b5b60006140cb8682870161408f565b93505060206140dc8682870161408f565b92505060406140ed86828701613d2e565b9150509250925092565b600080fd5b7f4e487b7100000000000000000000000000000000000000000000000000000000600052604160045260246000fd5b61413482613b0d565b810181811067ffffffffffffffff82111715614153576141526140fc565b5b80604052505050565b60006141666139f7565b9050614172828261412b565b919050565b600067ffffffffffffffff821115614192576141916140fc565b5b61419b82613b0d565b9050602081019050919050565b82818337600083830152505050565b60006141ca6141c584614177565b61415c565b9050828152602081018484840111156141e6576141e56140f7565b5b6141f18482856141a8565b509392505050565b600082601f83011261420e5761420d613de4565b5b813561421e8482602086016141b7565b91505092915050565b6000806040838503121561423e5761423d613a01565b5b600061424c85828601613a2c565b925050602083013567ffffffffffffffff81111561426d5761426c613a06565b5b614279858286016141f9565b9150509250929050565b60006020820190506142986000830184613aaf565b92915050565b600080604083850312156142b5576142b4613a01565b5b60006142c385828601613a2c565b92505060206142d485828601613d2e565b9150509250929050565b6000602082840312156142f4576142f3613a01565b5b600082013567ffffffffffffffff81111561431257614311613a06565b5b61431e848285016141f9565b91505092915050565b600061433282613c9a565b9050919050565b61434281614327565b82525050565b600060408201905061435d6000830185613cbe565b61436a6020830184614339565b9392505050565b60006fffffffffffffffffffffffffffffffff82169050919050565b61439681614371565b81146143a157600080fd5b50565b6000813590506143b38161438d565b92915050565b6000602082840312156143cf576143ce613a01565b5b60006143dd848285016143a4565b91505092915050565b60006020820190506143fb6000830184613cbe565b92915050565b6002811061440e57600080fd5b50565b60008135905061442081614401565b92915050565b60008190508260206008028201111561444257614441613dee565b5b92915050565b6000806000806000806101a0878903121561446657614465613a01565b5b600061447489828a01613a2c565b965050602061448589828a01614411565b955050604061449689828a01613d2e565b94505060606144a789828a01613a2c565b93505060806144b889828a01613a2c565b92505060a06144c989828a01614426565b9150509295509295509295565b60006144e182613c9a565b9050919050565b6144f1816144d6565b82525050565b600060208201905061450c60008301846144e8565b92915050565b7f4e487b7100000000000000000000000000000000000000000000000000000000600052602260045260246000fd5b6000600282049050600182168061455957607f821691505b60208210810361456c5761456b614512565b5b50919050565b7f556e737570706f727465642063616c6c6261636b202d204265666f726520416760008201527f7265656d656e7420437265617465640000000000000000000000000000000000602082015250565b60006145ce602f83613ac9565b91506145d982614572565b604082019050919050565b600060208201905081810360008301526145fd816145c1565b9050919050565b600061460f82613c9a565b9050919050565b61461f81614604565b82525050565b600060608201905061463a6000830186614616565b6146476020830185613aaf565b6146546040830184613aaf565b949350505050565b60008151905061466b81613a15565b92915050565b60008151905061468081614078565b92915050565b600080600080608085870312156146a05761469f613a01565b5b60006146ae8782880161465c565b94505060206146bf87828801614671565b93505060406146d08782880161465c565b92505060606146e18782880161465c565b91505092959194509250565b7f4e487b7100000000000000000000000000000000000000000000000000000000600052601160045260246000fd5b600061472782613a0b565b91507fffffffffffffffffffffffffffffffffffffffffffffffffffffffffffffffff8203614759576147586146ed565b5b600182019050919050565b7f556e737570706f727465642063616c6c6261636b202d20204265666f7265204160008201527f677265656d656e74205465726d696e6174656400000000000000000000000000602082015250565b60006147c0603383613ac9565b91506147cb82614764565b604082019050919050565b600060208201905081810360008301526147ef816147b3565b9050919050565b60006148028385613f43565b935061480f8385846141a8565b61481883613b0d565b840190509392505050565b6000602082019050818103600083015261483e8184866147f6565b90509392505050565b600080fd5b600080fd5b600060ff82169050919050565b61486781614851565b811461487257600080fd5b50565b6000815190506148848161485e565b92915050565b60008151905061489981613d17565b92915050565b60007fffffffff0000000000000000000000000000000000000000000000000000000082169050919050565b6148d48161489f565b81146148df57600080fd5b50565b6000815190506148f1816148cb565b92915050565b600067ffffffffffffffff821115614912576149116140fc565b5b61491b82613b0d565b9050602081019050919050565b600061493b614936846148f7565b61415c565b905082815260208101848484011115614957576149566140f7565b5b614962848285613ada565b509392505050565b600082601f83011261497f5761497e613de4565b5b815161498f848260208601614928565b91505092915050565b6000819050919050565b6149ab81614998565b81146149b657600080fd5b50565b6000815190506149c8816149a2565b92915050565b60006149d982613a9d565b9050919050565b6149e9816149ce565b81146149f457600080fd5b50565b600081519050614a06816149e0565b92915050565b60006101608284031215614a2357614a22614847565b5b614a2e61016061415c565b90506000614a3e84828501614875565b6000830152506020614a5284828501614875565b6020830152506040614a668482850161465c565b6040830152506060614a7a8482850161488a565b6060830152506080614a8e848285016148e2565b60808301525060a082015167ffffffffffffffff811115614ab257614ab161484c565b5b614abe8482850161496a565b60a08301525060c0614ad28482850161465c565b60c08301525060e0614ae68482850161465c565b60e083015250610100614afb848285016149b9565b61010083015250610120614b118482850161488a565b61012083015250610140614b27848285016149f7565b6101408301525092915050565b600060208284031215614b4a57614b49613a01565b5b600082015167ffffffffffffffff811115614b6857614b67613a06565b5b614b7484828501614a0c565b91505092915050565b600060208284031215614b9357614b92613a01565b5b6000614ba18482850161465c565b91505092915050565b6000602082019050614bbf6000830184613a6e565b92915050565b60008160601b9050919050565b6000614bdd82614bc5565b9050919050565b6000614bef82614bd2565b9050919050565b614c07614c0282613a9d565b614be4565b82525050565b6000614c198284614bf6565b60148201915081905092915050565b614c3561010083836141a8565b5050565b60006101a082019050614c4f6000830189613a6e565b614c5c6020830188613a6e565b614c696040830187613a6e565b614c766060830186613a6e565b614c836080830185613a6e565b614c9060a0830184614c28565b979650505050505050565b7f596f752063616e6e6f7420766f746520666f7220636f6d706c6574656420707260008201527f6f706f73616c7321000000000000000000000000000000000000000000000000602082015250565b6000614cf7602883613ac9565b9150614d0282614c9b565b604082019050919050565b60006020820190508181036000830152614d2681614cea565b9050919050565b7f596f75206861766520616c726561647920766f74656400000000000000000000600082015250565b6000614d63601683613ac9565b9150614d6e82614d2d565b602082019050919050565b60006020820190508181036000830152614d9281614d56565b9050919050565b6000614da482613a0b565b9150614daf83613a0b565b9250827fffffffffffffffffffffffffffffffffffffffffffffffffffffffffffffffff03821115614de457614de36146ed565b5b828201905092915050565b6000604082019050614e046000830185613aaf565b614e116020830184613a6e565b9392505050565b600080600060608486031215614e3157614e30613a01565b5b6000614e3f868287016149b9565b9350506020614e508682870161465c565b9250506040614e618682870161465c565b9150509250925092565b7f5351463a20596f75206e656564204d6f6e657920746f2064697374726962757460008201527f6500000000000000000000000000000000000000000000000000000000000000602082015250565b6000614ec7602183613ac9565b9150614ed282614e6b565b604082019050919050565b60006020820190508181036000830152614ef681614eba565b9050919050565b600063ffffffff82169050919050565b614f1681614efd565b82525050565b6000608082019050614f316000830187614616565b614f3e6020830186613aaf565b614f4b6040830185614f0d565b614f586060830184613a6e565b95945050505050565b600081519050614f708161438d565b92915050565b60008060408385031215614f8d57614f8c613a01565b5b6000614f9b8582860161465c565b9250506020614fac85828601614f61565b9150509250929050565b600081905092915050565b6000614fcc82613f38565b614fd68185614fb6565b9350614fe6818560208601613ada565b80840191505092915050565b6000614ffe8284614fc1565b915081905092915050565b600060408201905061501e6000830185614616565b61502b6020830184613aaf565b9392505050565b60006020828403121561504857615047613a01565b5b600061505684828501614671565b91505092915050565b600061506a8261406b565b91506150758361406b565b9250816b7fffffffffffffffffffffff0383136000831215161561509c5761509b6146ed565b5b817fffffffffffffffffffffffffffffffffffffffff8000000000000000000000000383126000831216156150d4576150d36146ed565b5b828201905092915050565b60006150ea82613a0b565b91506150f583613a0b565b9250817fffffffffffffffffffffffffffffffffffffffffffffffffffffffffffffffff048311821515161561512e5761512d6146ed565b5b828202905092915050565b7f4e487b7100000000000000000000000000000000000000000000000000000000600052601260045260246000fd5b600061517382613a0b565b915061517e83613a0b565b92508261518e5761518d615139565b5b828204905092915050565b60006151a482613c9a565b9050919050565b6151b481615199565b82525050565b600060a0820190506151cf60008301886151ab565b6151dc6020830187613aaf565b6151e96040830186614f0d565b6151f66060830185613aaf565b81810360808301526152088184613f54565b90509695505050505050565b60006060820190506152296000830186613cdf565b818103602083015261523b8185613f54565b9050818103604083015261524f8184613f54565b9050949350505050565b60006020828403121561526f5761526e613a01565b5b600082015167ffffffffffffffff81111561528d5761528c613a06565b5b6152998482850161496a565b91505092915050565b60006060820190506152b760008301866151ab565b6152c46020830185614f0d565b81810360408301526152d68184613f54565b9050949350505050565b6152e98161406b565b82525050565b600060808201905061530460008301876151ab565b6153116020830186613aaf565b61531e60408301856152e0565b81810360608301526153308184613f54565b905095945050505050565b60006060820190506153506000830186614339565b81810360208301526153628185613f54565b905081810360408301526153768184613f54565b9050949350505050565b600060808201905061539560008301876151ab565b6153a26020830186614f0d565b6153af6040830185613a6e565b81810360608301526153c18184613f54565b905095945050505050565b60006080820190506153e160008301876151ab565b6153ee6020830186613aaf565b6153fb6040830185613aaf565b818103606083015261540d8184613f54565b905095945050505050565b600060808201905061542d6000830187614339565b818103602083015261543f8186613f54565b905081810360408301526154538185613f54565b905081810360608301526154678184613f54565b905095945050505050565b6000806040838503121561548957615488613a01565b5b600083015167ffffffffffffffff8111156154a7576154a6613a06565b5b6154b38582860161496a565b925050602083015167ffffffffffffffff8111156154d4576154d3613a06565b5b6154e08582860161496a565b9150509250929050565b6154f381614371565b82525050565b600060a08201905061550e60008301886151ab565b61551b6020830187614f0d565b6155286040830186613aaf565b61553560608301856154ea565b81810360808301526155478184613f54565b90509695505050505050565b60006080820190506155686000830187613cdf565b818103602083015261557a8186613f54565b9050818103604083015261558e8185613f54565b905081810360608301526155a28184613f54565b90509594505050505056fea26469706673582212203814902bcb8483f7d12f3023f1eea1e2ba948dc36c3aacde9404a79ad86a621864736f6c634300080e0033",
  "linkReferences": {},
  "deployedLinkReferences": {}
}