{
  "_format": "hh-sol-artifact-1",
  "contractName": "DAOCare",
  "sourceName": "contracts/DaoCare.sol",
  "abi": [
    {
      "inputs": [
        {
          "internalType": "contract IWorldID",
          "name": "_worldId",
          "type": "address"
        },
        {
          "internalType": "uint256",
          "name": "_groupId",
          "type": "uint256"
        },
        {
          "internalType": "string",
          "name": "_actionId",
          "type": "string"
        },
        {
          "internalType": "contract ISuperfluid",
          "name": "host",
          "type": "address"
        },
        {
          "internalType": "contract ISuperToken",
          "name": "acceptedToken",
          "type": "address"
        },
        {
          "internalType": "contract IPublicLock",
          "name": "_lockAddress",
          "type": "address"
        }
      ],
      "stateMutability": "nonpayable",
      "type": "constructor"
    },
    {
      "inputs": [],
      "name": "InvalidAgreement",
      "type": "error"
    },
    {
      "inputs": [],
      "name": "InvalidNullifier",
      "type": "error"
    },
    {
      "inputs": [],
      "name": "InvalidToken",
      "type": "error"
    },
    {
      "inputs": [],
      "name": "Unauthorized",
      "type": "error"
    },
    {
      "anonymous": false,
      "inputs": [
        {
          "indexed": true,
          "internalType": "uint256",
          "name": "proposalId",
          "type": "uint256"
        },
        {
          "indexed": true,
          "internalType": "address",
          "name": "proposer",
          "type": "address"
        }
      ],
      "name": "ProposalCreated",
      "type": "event"
    },
    {
      "anonymous": false,
      "inputs": [],
      "name": "plannerExecuted",
      "type": "event"
    },
    {
      "anonymous": false,
      "inputs": [],
      "name": "plannerRegistered",
      "type": "event"
    },
    {
      "anonymous": false,
      "inputs": [],
      "name": "proposalExecuted",
      "type": "event"
    },
    {
      "anonymous": false,
      "inputs": [],
      "name": "volunteerRegistered",
      "type": "event"
    },
    {
      "anonymous": false,
      "inputs": [],
      "name": "voteCast",
      "type": "event"
    },
    {
      "inputs": [],
      "name": "EPNS_COMM_ADDRESS",
      "outputs": [
        {
          "internalType": "address",
          "name": "",
          "type": "address"
        }
      ],
      "stateMutability": "view",
      "type": "function"
    },
    {
      "inputs": [
        {
          "internalType": "uint256",
          "name": "_proposalId",
          "type": "uint256"
        },
        {
          "internalType": "string",
          "name": "_description",
          "type": "string"
        }
      ],
      "name": "PlannerRegister",
      "outputs": [],
      "stateMutability": "nonpayable",
      "type": "function"
    },
    {
      "inputs": [
        {
          "internalType": "uint256",
          "name": "_proposalId",
          "type": "uint256"
        },
        {
          "internalType": "string",
          "name": "_name",
          "type": "string"
        }
      ],
      "name": "VolunteerRegister",
      "outputs": [],
      "stateMutability": "nonpayable",
      "type": "function"
    },
    {
      "inputs": [],
      "name": "_host",
      "outputs": [
        {
          "internalType": "contract ISuperfluid",
          "name": "",
          "type": "address"
        }
      ],
      "stateMutability": "view",
      "type": "function"
    },
    {
      "inputs": [
        {
          "internalType": "uint256",
          "name": "proposalId",
          "type": "uint256"
        },
        {
          "internalType": "address",
          "name": "_volunteerAddr",
          "type": "address"
        }
      ],
      "name": "_isVolunteerCompleted",
      "outputs": [],
      "stateMutability": "nonpayable",
      "type": "function"
    },
    {
      "inputs": [
        {
          "internalType": "address",
          "name": "_proposer",
          "type": "address"
        }
      ],
      "name": "acceptedProposal",
      "outputs": [],
      "stateMutability": "nonpayable",
      "type": "function"
    },
    {
      "inputs": [
        {
          "internalType": "uint256",
          "name": "",
          "type": "uint256"
        }
      ],
      "name": "activeProposerAddress",
      "outputs": [
        {
          "internalType": "address",
          "name": "",
          "type": "address"
        }
      ],
      "stateMutability": "view",
      "type": "function"
    },
    {
      "inputs": [
        {
          "internalType": "contract ISuperToken",
          "name": "_superToken",
          "type": "address"
        },
        {
          "internalType": "address",
          "name": "_agreementClass",
          "type": "address"
        },
        {
          "internalType": "bytes32",
          "name": "",
          "type": "bytes32"
        },
        {
          "internalType": "bytes",
          "name": "",
          "type": "bytes"
        },
        {
          "internalType": "bytes",
          "name": "_cbdata",
          "type": "bytes"
        },
        {
          "internalType": "bytes",
          "name": "_ctx",
          "type": "bytes"
        }
      ],
      "name": "afterAgreementCreated",
      "outputs": [
        {
          "internalType": "bytes",
          "name": "newCtx",
          "type": "bytes"
        }
      ],
      "stateMutability": "nonpayable",
      "type": "function"
    },
    {
      "inputs": [
        {
          "internalType": "contract ISuperToken",
          "name": "_superToken",
          "type": "address"
        },
        {
          "internalType": "address",
          "name": "_agreementClass",
          "type": "address"
        },
        {
          "internalType": "bytes32",
          "name": "",
          "type": "bytes32"
        },
        {
          "internalType": "bytes",
          "name": "",
          "type": "bytes"
        },
        {
          "internalType": "bytes",
          "name": "_cbdata",
          "type": "bytes"
        },
        {
          "internalType": "bytes",
          "name": "_ctx",
          "type": "bytes"
        }
      ],
      "name": "afterAgreementTerminated",
      "outputs": [
        {
          "internalType": "bytes",
          "name": "newCtx",
          "type": "bytes"
        }
      ],
      "stateMutability": "nonpayable",
      "type": "function"
    },
    {
      "inputs": [
        {
          "internalType": "contract ISuperToken",
          "name": "_superToken",
          "type": "address"
        },
        {
          "internalType": "address",
          "name": "_agreementClass",
          "type": "address"
        },
        {
          "internalType": "bytes32",
          "name": "",
          "type": "bytes32"
        },
        {
          "internalType": "bytes",
          "name": "",
          "type": "bytes"
        },
        {
          "internalType": "bytes",
          "name": "_cbdata",
          "type": "bytes"
        },
        {
          "internalType": "bytes",
          "name": "_ctx",
          "type": "bytes"
        }
      ],
      "name": "afterAgreementUpdated",
      "outputs": [
        {
          "internalType": "bytes",
          "name": "newCtx",
          "type": "bytes"
        }
      ],
      "stateMutability": "nonpayable",
      "type": "function"
    },
    {
      "inputs": [
        {
          "internalType": "contract ISuperToken",
          "name": "",
          "type": "address"
        },
        {
          "internalType": "address",
          "name": "",
          "type": "address"
        },
        {
          "internalType": "bytes32",
          "name": "",
          "type": "bytes32"
        },
        {
          "internalType": "bytes",
          "name": "",
          "type": "bytes"
        },
        {
          "internalType": "bytes",
          "name": "",
          "type": "bytes"
        }
      ],
      "name": "beforeAgreementCreated",
      "outputs": [
        {
          "internalType": "bytes",
          "name": "",
          "type": "bytes"
        }
      ],
      "stateMutability": "view",
      "type": "function"
    },
    {
      "inputs": [
        {
          "internalType": "contract ISuperToken",
          "name": "",
          "type": "address"
        },
        {
          "internalType": "address",
          "name": "",
          "type": "address"
        },
        {
          "internalType": "bytes32",
          "name": "",
          "type": "bytes32"
        },
        {
          "internalType": "bytes",
          "name": "",
          "type": "bytes"
        },
        {
          "internalType": "bytes",
          "name": "",
          "type": "bytes"
        }
      ],
      "name": "beforeAgreementTerminated",
      "outputs": [
        {
          "internalType": "bytes",
          "name": "",
          "type": "bytes"
        }
      ],
      "stateMutability": "view",
      "type": "function"
    },
    {
      "inputs": [
        {
          "internalType": "contract ISuperToken",
          "name": "_superToken",
          "type": "address"
        },
        {
          "internalType": "address",
          "name": "_agreementClass",
          "type": "address"
        },
        {
          "internalType": "bytes32",
          "name": "",
          "type": "bytes32"
        },
        {
          "internalType": "bytes",
          "name": "",
          "type": "bytes"
        },
        {
          "internalType": "bytes",
          "name": "_ctx",
          "type": "bytes"
        }
      ],
      "name": "beforeAgreementUpdated",
      "outputs": [
        {
          "internalType": "bytes",
          "name": "cbdata",
          "type": "bytes"
        }
      ],
      "stateMutability": "view",
      "type": "function"
    },
    {
      "inputs": [
        {
          "internalType": "uint256",
          "name": "proposalId",
          "type": "uint256"
        },
        {
          "internalType": "address",
          "name": "_planner",
          "type": "address"
        }
      ],
      "name": "bookPlanner",
      "outputs": [],
      "stateMutability": "nonpayable",
      "type": "function"
    },
    {
      "inputs": [
        {
          "internalType": "uint256",
          "name": "proposalId",
          "type": "uint256"
        },
        {
          "internalType": "enum DAOCare.VoteType",
          "name": "_voteType",
          "type": "uint8"
        },
        {
          "internalType": "address",
          "name": "input",
          "type": "address"
        },
        {
          "internalType": "uint256",
          "name": "root",
          "type": "uint256"
        },
        {
          "internalType": "uint256",
          "name": "nullifierHash",
          "type": "uint256"
        },
        {
          "internalType": "uint256[8]",
          "name": "proof",
          "type": "uint256[8]"
        }
      ],
      "name": "castVote",
      "outputs": [],
      "stateMutability": "nonpayable",
      "type": "function"
    },
    {
      "inputs": [],
      "name": "cfaV1Lib",
      "outputs": [
        {
          "internalType": "contract ISuperfluid",
          "name": "host",
          "type": "address"
        },
        {
          "internalType": "contract IConstantFlowAgreementV1",
          "name": "cfa",
          "type": "address"
        }
      ],
      "stateMutability": "view",
      "type": "function"
    },
    {
      "inputs": [],
      "name": "createIndex",
      "outputs": [],
      "stateMutability": "nonpayable",
      "type": "function"
    },
    {
      "inputs": [
        {
          "internalType": "string",
          "name": "_description",
          "type": "string"
        }
      ],
      "name": "createProposal",
      "outputs": [],
      "stateMutability": "nonpayable",
      "type": "function"
    },
    {
      "inputs": [],
      "name": "currentProposar",
      "outputs": [
        {
          "internalType": "address",
          "name": "",
          "type": "address"
        }
      ],
      "stateMutability": "view",
      "type": "function"
    },
    {
      "inputs": [
        {
          "internalType": "address",
          "name": "subscriber",
          "type": "address"
        }
      ],
      "name": "deleteShares",
      "outputs": [],
      "stateMutability": "nonpayable",
      "type": "function"
    },
    {
      "inputs": [],
      "name": "distribute",
      "outputs": [],
      "stateMutability": "nonpayable",
      "type": "function"
    },
    {
      "inputs": [
        {
          "internalType": "int96",
          "name": "ProposerflowRate",
          "type": "int96"
        },
        {
          "internalType": "int96",
          "name": "PlannerflowRate",
          "type": "int96"
        },
        {
          "internalType": "address",
          "name": "planner",
          "type": "address"
        }
      ],
      "name": "executePlannerProposal",
      "outputs": [],
      "stateMutability": "nonpayable",
      "type": "function"
    },
    {
      "inputs": [],
      "name": "idaV1",
      "outputs": [
        {
          "internalType": "contract ISuperfluid",
          "name": "host",
          "type": "address"
        },
        {
          "internalType": "contract IInstantDistributionAgreementV1",
          "name": "ida",
          "type": "address"
        }
      ],
      "stateMutability": "view",
      "type": "function"
    },
    {
      "inputs": [],
      "name": "lock",
      "outputs": [
        {
          "internalType": "contract IPublicLock",
          "name": "",
          "type": "address"
        }
      ],
      "stateMutability": "view",
      "type": "function"
    },
    {
      "inputs": [],
      "name": "owner",
      "outputs": [
        {
          "internalType": "address",
          "name": "",
          "type": "address"
        }
      ],
      "stateMutability": "view",
      "type": "function"
    },
    {
      "inputs": [
        {
          "internalType": "uint256",
          "name": "",
          "type": "uint256"
        }
      ],
      "name": "plannersAddr",
      "outputs": [
        {
          "internalType": "address",
          "name": "",
          "type": "address"
        }
      ],
      "stateMutability": "view",
      "type": "function"
    },
    {
      "inputs": [
        {
          "internalType": "uint256",
          "name": "",
          "type": "uint256"
        }
      ],
      "name": "proposals",
      "outputs": [
        {
          "internalType": "uint256",
          "name": "proposalId",
          "type": "uint256"
        },
        {
          "internalType": "uint256",
          "name": "yesVotes",
          "type": "uint256"
        },
        {
          "internalType": "uint256",
          "name": "noVotes",
          "type": "uint256"
        },
        {
          "internalType": "address",
          "name": "proposer",
          "type": "address"
        },
        {
          "internalType": "string",
          "name": "description",
          "type": "string"
        },
        {
          "internalType": "bool",
          "name": "active",
          "type": "bool"
        },
        {
          "internalType": "bool",
          "name": "voted",
          "type": "bool"
        },
        {
          "internalType": "enum DAOCare.VoteType",
          "name": "vote",
          "type": "uint8"
        }
      ],
      "stateMutability": "view",
      "type": "function"
    },
    {
      "inputs": [
        {
          "internalType": "uint256",
          "name": "",
          "type": "uint256"
        }
      ],
      "name": "proposerAddress",
      "outputs": [
        {
          "internalType": "address",
          "name": "",
          "type": "address"
        }
      ],
      "stateMutability": "view",
      "type": "function"
    },
    {
      "inputs": [
        {
          "internalType": "uint128",
          "name": "_ProposerUnitShare",
          "type": "uint128"
        }
      ],
      "name": "setUnit",
      "outputs": [],
      "stateMutability": "nonpayable",
      "type": "function"
    },
    {
      "inputs": [
        {
          "internalType": "uint256",
          "name": "_votePercentage",
          "type": "uint256"
        }
      ],
      "name": "setVotePercentage",
      "outputs": [],
      "stateMutability": "nonpayable",
      "type": "function"
    },
    {
      "inputs": [
        {
          "internalType": "uint256",
          "name": "_thresholdAmountMax",
          "type": "uint256"
        }
      ],
      "name": "setVotingThresholdMax",
      "outputs": [],
      "stateMutability": "nonpayable",
      "type": "function"
    },
    {
      "inputs": [
        {
          "internalType": "uint256",
          "name": "",
          "type": "uint256"
        }
      ],
      "name": "volunteers",
      "outputs": [
        {
          "internalType": "address",
          "name": "",
          "type": "address"
        }
      ],
      "stateMutability": "view",
      "type": "function"
    },
    {
      "inputs": [],
      "name": "votePercentage",
      "outputs": [
        {
          "internalType": "uint256",
          "name": "",
          "type": "uint256"
        }
      ],
      "stateMutability": "view",
      "type": "function"
    }
  ],
  "bytecode": "0x61010060405273b3971bcef2d791bc4027bbfedfb47319a4aaaaaa6000806101000a81548173ffffffffffffffffffffffffffffffffffffffff021916908373ffffffffffffffffffffffffffffffffffffffff16021790555073cffcb4c9d94524e4609ffef60c47daf8fc38ae1b600860006101000a81548173ffffffffffffffffffffffffffffffffffffffff021916908373ffffffffffffffffffffffffffffffffffffffff160217905550348015620000bb57600080fd5b50604051620066cc380380620066cc8339818101604052810190620000e19190620009a0565b600073ffffffffffffffffffffffffffffffffffffffff168373ffffffffffffffffffffffffffffffffffffffff160362000121576200012062000a5b565b5b600073ffffffffffffffffffffffffffffffffffffffff168273ffffffffffffffffffffffffffffffffffffffff160362000161576200016062000a5b565b5b8573ffffffffffffffffffffffffffffffffffffffff1660a08173ffffffffffffffffffffffffffffffffffffffff16815250508460c08181525050620001d484604051602001620001b4919062000ad7565b6040516020818303038152906040526200064760201b620021ce1760201c565b60e081815250508173ffffffffffffffffffffffffffffffffffffffff1660808173ffffffffffffffffffffffffffffffffffffffff168152505080600660006101000a81548173ffffffffffffffffffffffffffffffffffffffff021916908373ffffffffffffffffffffffffffffffffffffffff16021790555082600160006101000a81548173ffffffffffffffffffffffffffffffffffffffff021916908373ffffffffffffffffffffffffffffffffffffffff16021790555033600c60006101000a81548173ffffffffffffffffffffffffffffffffffffffff021916908373ffffffffffffffffffffffffffffffffffffffff16021790555060405180604001604052808473ffffffffffffffffffffffffffffffffffffffff1681526020018473ffffffffffffffffffffffffffffffffffffffff1663b6d200de7fa9214cc96615e0085d3bb077758db69497dc2dce3b2b1e97bc93c3d18d83efd36040518263ffffffff1660e01b815260040162000354919062000b0b565b602060405180830381865afa15801562000372573d6000803e3d6000fd5b505050506040513d601f19601f8201168201806040525081019062000398919062000b6d565b73ffffffffffffffffffffffffffffffffffffffff16815250600260008201518160000160006101000a81548173ffffffffffffffffffffffffffffffffffffffff021916908373ffffffffffffffffffffffffffffffffffffffff16021790555060208201518160010160006101000a81548173ffffffffffffffffffffffffffffffffffffffff021916908373ffffffffffffffffffffffffffffffffffffffff16021790555090505060405180604001604052808473ffffffffffffffffffffffffffffffffffffffff1681526020018473ffffffffffffffffffffffffffffffffffffffff1663b6d200de7f8aedc3b5d4bf031e11a7e2940f7251c005698405d58e02e1c247fed3b1b3a6746040518263ffffffff1660e01b8152600401620004c6919062000b0b565b602060405180830381865afa158015620004e4573d6000803e3d6000fd5b505050506040513d601f19601f820116820180604052508101906200050a919062000b6d565b73ffffffffffffffffffffffffffffffffffffffff16815250600460008201518160000160006101000a81548173ffffffffffffffffffffffffffffffffffffffff021916908373ffffffffffffffffffffffffffffffffffffffff16021790555060208201518160010160006101000a81548173ffffffffffffffffffffffffffffffffffffffff021916908373ffffffffffffffffffffffffffffffffffffffff1602179055509050508273ffffffffffffffffffffffffffffffffffffffff1663ad3915c864100000000064040000000064010000000060011717176040518263ffffffff1660e01b815260040162000607919062000bb0565b600060405180830381600087803b1580156200062257600080fd5b505af115801562000637573d6000803e3d6000fd5b5050505050505050505062000c33565b60006008826040516020016200065e919062000c1a565b6040516020818303038152906040528051906020012060001c901c9050919050565b6000604051905090565b600080fd5b600080fd5b600073ffffffffffffffffffffffffffffffffffffffff82169050919050565b6000620006c18262000694565b9050919050565b6000620006d582620006b4565b9050919050565b620006e781620006c8565b8114620006f357600080fd5b50565b6000815190506200070781620006dc565b92915050565b6000819050919050565b62000722816200070d565b81146200072e57600080fd5b50565b600081519050620007428162000717565b92915050565b600080fd5b600080fd5b6000601f19601f8301169050919050565b7f4e487b7100000000000000000000000000000000000000000000000000000000600052604160045260246000fd5b6200079d8262000752565b810181811067ffffffffffffffff82111715620007bf57620007be62000763565b5b80604052505050565b6000620007d462000680565b9050620007e2828262000792565b919050565b600067ffffffffffffffff82111562000805576200080462000763565b5b620008108262000752565b9050602081019050919050565b60005b838110156200083d57808201518184015260208101905062000820565b838111156200084d576000848401525b50505050565b60006200086a6200086484620007e7565b620007c8565b9050828152602081018484840111156200088957620008886200074d565b5b620008968482856200081d565b509392505050565b600082601f830112620008b657620008b562000748565b5b8151620008c884826020860162000853565b91505092915050565b6000620008de82620006b4565b9050919050565b620008f081620008d1565b8114620008fc57600080fd5b50565b6000815190506200091081620008e5565b92915050565b60006200092382620006b4565b9050919050565b620009358162000916565b81146200094157600080fd5b50565b60008151905062000955816200092a565b92915050565b60006200096882620006b4565b9050919050565b6200097a816200095b565b81146200098657600080fd5b50565b6000815190506200099a816200096f565b92915050565b60008060008060008060c08789031215620009c057620009bf6200068a565b5b6000620009d089828a01620006f6565b9650506020620009e389828a0162000731565b955050604087015167ffffffffffffffff81111562000a075762000a066200068f565b5b62000a1589828a016200089e565b945050606062000a2889828a01620008ff565b935050608062000a3b89828a0162000944565b92505060a062000a4e89828a0162000989565b9150509295509295509295565b7f4e487b7100000000000000000000000000000000000000000000000000000000600052600160045260246000fd5b600081519050919050565b600081905092915050565b600062000aad8262000a8a565b62000ab9818562000a95565b935062000acb8185602086016200081d565b80840191505092915050565b600062000ae5828462000aa0565b915081905092915050565b6000819050919050565b62000b058162000af0565b82525050565b600060208201905062000b22600083018462000afa565b92915050565b600062000b3582620006b4565b9050919050565b62000b478162000b28565b811462000b5357600080fd5b50565b60008151905062000b678162000b3c565b92915050565b60006020828403121562000b865762000b856200068a565b5b600062000b968482850162000b56565b91505092915050565b62000baa816200070d565b82525050565b600060208201905062000bc7600083018462000b9f565b92915050565b600081519050919050565b600081905092915050565b600062000bf08262000bcd565b62000bfc818562000bd8565b935062000c0e8185602086016200081d565b80840191505092915050565b600062000c28828462000be3565b915081905092915050565b60805160a05160c05160e0516159e862000ce460003960006119fa015260006119b0015260006119730152600081816107db0152818161081a015281816109e301528181610a9f01528181610b7a01528181610bb2015281816110e5015281816113f10152818161174901528181611d6801528181611e8e01528181611f180152818161230c015281816123d101528181612505015281816125b80152818161265f01526131cd01526159e86000f3fe608060405234801561001057600080fd5b50600436106101fb5760003560e01c8063668bbcfb1161011a578063b598c4dc116100ad578063e4fc6b6d1161007c578063e4fc6b6d146105f1578063e828ed27146105fb578063e8de3d7114610617578063ede5356f14610633578063f83d08ba1461064f576101fb565b8063b598c4dc1461056b578063d86ed3e514610589578063df6286a9146105b9578063dffb4632146105d5576101fb565b8063884d1f40116100e9578063884d1f40146104bd5780638da5cb5b146104ed5780639fdfe7bd1461050b578063b4d5ab941461053b576101fb565b8063668bbcfb1461043757806372942b851461045357806383dff64414610483578063852e5a0a1461049f576101fb565b8063381f36101161019257806349c2a1a61161016157806349c2a1a61461039c57806353c11f99146103b857806355586a31146103e85780635f9e7d7714610407576101fb565b8063381f3610146103165780633dbf8cc514610332578063413a67d51461036257806348a3b4a41461037e576101fb565b8063285742f5116101ce578063285742f5146102a257806330d9c915146102ac57806334b502c0146102dc578063369746ba146102fa576101fb565b8063013cf08b146102005780631cc8ca99146102375780632268cacb14610256578063230dbd2914610272575b600080fd5b61021a60048036038101906102159190613c35565b61066d565b60405161022e989796959493929190613ddd565b60405180910390f35b61023f610784565b60405161024d929190613ee2565b60405180910390f35b610270600480360381019061026b9190613f37565b6107d6565b005b61028c6004803603810190610287919061403d565b610814565b6040516102999190614181565b60405180910390f35b6102aa6109de565b005b6102c660048036038101906102c191906141a3565b610a17565b6040516102d39190614181565b60405180910390f35b6102e4610a54565b6040516102f1919061425f565b60405180910390f35b610314600480360381019061030f91906142b3565b610a5a565b005b610330600480360381019061032b9190614436565b610beb565b005b61034c60048036038101906103479190613c35565b610d18565b6040516103599190614492565b60405180910390f35b61037c600480360381019061037791906144ad565b610d57565b005b610386610e2a565b6040516103939190614492565b60405180910390f35b6103b660048036038101906103b191906144ed565b610e4e565b005b6103d260048036038101906103cd919061403d565b61105a565b6040516103df9190614181565b60405180910390f35b6103f061120f565b6040516103fe929190614557565b60405180910390f35b610421600480360381019061041c91906141a3565b611261565b60405161042e9190614181565b60405180910390f35b610451600480360381019061044c9190613f37565b61129e565b005b61046d60048036038101906104689190613c35565b61134a565b60405161047a9190614492565b60405180910390f35b61049d600480360381019061049891906145c8565b611389565b005b6104a76113c5565b6040516104b491906145f5565b60405180910390f35b6104d760048036038101906104d291906141a3565b6113eb565b6040516104e49190614181565b60405180910390f35b6104f5611679565b6040516105029190614492565b60405180910390f35b61052560048036038101906105209190613c35565b61169f565b6040516105329190614492565b60405180910390f35b61055560048036038101906105509190613c35565b6116de565b6040516105629190614492565b60405180910390f35b61057361171d565b6040516105809190614492565b60405180910390f35b6105a3600480360381019061059e919061403d565b611743565b6040516105b09190614181565b60405180910390f35b6105d360048036038101906105ce9190614657565b611919565b005b6105ef60048036038101906105ea9190613c35565b611d5a565b005b6105f9611d64565b005b61061560048036038101906106109190613c35565b611f50565b005b610631600480360381019061062c91906144ad565b611f5a565b005b61064d60048036038101906106489190614436565b61207b565b005b6106576121a8565b6040516106649190614706565b60405180910390f35b600d6020528060005260406000206000915090508060000154908060010154908060020154908060030160009054906101000a900473ffffffffffffffffffffffffffffffffffffffff16908060040180546106c890614750565b80601f01602080910402602001604051908101604052809291908181526020018280546106f490614750565b80156107415780601f1061071657610100808354040283529160200191610741565b820191906000526020600020905b81548152906001019060200180831161072457829003601f168201915b5050505050908060050160009054906101000a900460ff16908060050160019054906101000a900460ff16908060050160029054906101000a900460ff16905088565b60048060000160009054906101000a900473ffffffffffffffffffffffffffffffffffffffff16908060010160009054906101000a900473ffffffffffffffffffffffffffffffffffffffff16905082565b6108117f000000000000000000000000000000000000000000000000000000000000000030600084600461220590949392919063ffffffff16565b50565b606089897f000000000000000000000000000000000000000000000000000000000000000073ffffffffffffffffffffffffffffffffffffffff168273ffffffffffffffffffffffffffffffffffffffff161461089d576040517fc1ab6dc100000000000000000000000000000000000000000000000000000000815260040160405180910390fd5b600260010160009054906101000a900473ffffffffffffffffffffffffffffffffffffffff1673ffffffffffffffffffffffffffffffffffffffff168173ffffffffffffffffffffffffffffffffffffffff1614610927576040517ffe1da89a00000000000000000000000000000000000000000000000000000000815260040160405180910390fd5b600160009054906101000a900473ffffffffffffffffffffffffffffffffffffffff1673ffffffffffffffffffffffffffffffffffffffff163373ffffffffffffffffffffffffffffffffffffffff16146109ae576040517f82b4290000000000000000000000000000000000000000000000000000000000815260040160405180910390fd5b600087878101906109bf9190613c35565b90506109cc818787612267565b93505050509998505050505050505050565b610a157f0000000000000000000000000000000000000000000000000000000000000000600060046126a19092919063ffffffff16565b565b60606040517f08c379a0000000000000000000000000000000000000000000000000000000008152600401610a4b906147f3565b60405180910390fd5b60095481565b6000600260010160009054906101000a900473ffffffffffffffffffffffffffffffffffffffff1673ffffffffffffffffffffffffffffffffffffffff1663e6a1e8887f000000000000000000000000000000000000000000000000000000000000000030600b60009054906101000a900473ffffffffffffffffffffffffffffffffffffffff166040518463ffffffff1660e01b8152600401610b0093929190614834565b608060405180830381865afa158015610b1d573d6000803e3d6000fd5b505050506040513d601f19601f82011682018060405250810190610b419190614895565b5050915050600081600b0b1315610be557610bac600b60009054906101000a900473ffffffffffffffffffffffffffffffffffffffff167f00000000000000000000000000000000000000000000000000000000000000008660026126ff909392919063ffffffff16565b610be4827f000000000000000000000000000000000000000000000000000000000000000085600261275f909392919063ffffffff16565b5b50505050565b6000601260003373ffffffffffffffffffffffffffffffffffffffff1673ffffffffffffffffffffffffffffffffffffffff168152602001908152602001600020905081816000019080519060200190610c46929190613b48565b50338160010160006101000a81548173ffffffffffffffffffffffffffffffffffffffff021916908373ffffffffffffffffffffffffffffffffffffffff16021790555060008160010160146101000a81548160ff0219169083151502179055508281600201819055506013339080600181540180825580915050600190039060005260206000200160009091909190916101000a81548173ffffffffffffffffffffffffffffffffffffffff021916908373ffffffffffffffffffffffffffffffffffffffff160217905550505050565b60138181548110610d2857600080fd5b906000526020600020016000915054906101000a900473ffffffffffffffffffffffffffffffffffffffff1681565b6000600d600084815260200190815260200160002090503373ffffffffffffffffffffffffffffffffffffffff168160030160009054906101000a900473ffffffffffffffffffffffffffffffffffffffff1673ffffffffffffffffffffffffffffffffffffffff1614610dca57600080fd5b6001601260008473ffffffffffffffffffffffffffffffffffffffff1673ffffffffffffffffffffffffffffffffffffffff16815260200190815260200160002060010160146101000a81548160ff021916908315150217905550505050565b60008054906101000a900473ffffffffffffffffffffffffffffffffffffffff1681565b6000600d6000601154815260200190815260200160002090506011548160000181905550338160030160006101000a81548173ffffffffffffffffffffffffffffffffffffffff021916908373ffffffffffffffffffffffffffffffffffffffff16021790555081816004019080519060200190610ecd929190613b48565b5060008160050160006101000a81548160ff021916908315150217905550600f339080600181540180825580915050600190039060005260206000200160009091909190916101000a81548173ffffffffffffffffffffffffffffffffffffffff021916908373ffffffffffffffffffffffffffffffffffffffff16021790555060116000815480929190610f619061492b565b919050555060008054906101000a900473ffffffffffffffffffffffffffffffffffffffff1673ffffffffffffffffffffffffffffffffffffffff1663ba3d69d7600860009054906101000a900473ffffffffffffffffffffffffffffffffffffffff16600860009054906101000a900473ffffffffffffffffffffffffffffffffffffffff16604051602001610ff790614afa565b6040516020818303038152906040526040518463ffffffff1660e01b815260040161102493929190614b46565b600060405180830381600087803b15801561103e57600080fd5b505af1158015611052573d6000803e3d6000fd5b505050505050565b6060600160009054906101000a900473ffffffffffffffffffffffffffffffffffffffff1673ffffffffffffffffffffffffffffffffffffffff163373ffffffffffffffffffffffffffffffffffffffff16146110e3576040517f82b4290000000000000000000000000000000000000000000000000000000000815260040160405180910390fd5b7f000000000000000000000000000000000000000000000000000000000000000073ffffffffffffffffffffffffffffffffffffffff168a73ffffffffffffffffffffffffffffffffffffffff1614158061118f5750600260010160009054906101000a900473ffffffffffffffffffffffffffffffffffffffff1673ffffffffffffffffffffffffffffffffffffffff168973ffffffffffffffffffffffffffffffffffffffff1614155b156111e05782828080601f016020809104026020016040519081016040528093929190818152602001838380828437600081840152601f19601f820116905080830192505050505050509050611202565b600085858101906111f19190613c35565b90506111fe818585612267565b9150505b9998505050505050505050565b60028060000160009054906101000a900473ffffffffffffffffffffffffffffffffffffffff16908060010160009054906101000a900473ffffffffffffffffffffffffffffffffffffffff16905082565b60606040517f08c379a000000000000000000000000000000000000000000000000000000000815260040161129590614bf6565b60405180910390fd5b6000601460003373ffffffffffffffffffffffffffffffffffffffff1673ffffffffffffffffffffffffffffffffffffffff168152602001908152602001600020905080600301829080600181540180825580915050600190039060005260206000200160009091909190916101000a81548173ffffffffffffffffffffffffffffffffffffffff021916908373ffffffffffffffffffffffffffffffffffffffff1602179055505050565b600f818154811061135a57600080fd5b906000526020600020016000915054906101000a900473ffffffffffffffffffffffffffffffffffffffff1681565b80600a60006101000a8154816fffffffffffffffffffffffffffffffff02191690836fffffffffffffffffffffffffffffffff16021790555050565b600160009054906101000a900473ffffffffffffffffffffffffffffffffffffffff1681565b606087877f000000000000000000000000000000000000000000000000000000000000000073ffffffffffffffffffffffffffffffffffffffff168273ffffffffffffffffffffffffffffffffffffffff1614611474576040517fc1ab6dc100000000000000000000000000000000000000000000000000000000815260040160405180910390fd5b600260010160009054906101000a900473ffffffffffffffffffffffffffffffffffffffff1673ffffffffffffffffffffffffffffffffffffffff168173ffffffffffffffffffffffffffffffffffffffff16146114fe576040517ffe1da89a00000000000000000000000000000000000000000000000000000000815260040160405180910390fd5b600160009054906101000a900473ffffffffffffffffffffffffffffffffffffffff1673ffffffffffffffffffffffffffffffffffffffff163373ffffffffffffffffffffffffffffffffffffffff1614611585576040517f82b4290000000000000000000000000000000000000000000000000000000000815260040160405180910390fd5b6000600160009054906101000a900473ffffffffffffffffffffffffffffffffffffffff1673ffffffffffffffffffffffffffffffffffffffff16633f6c923a87876040518363ffffffff1660e01b81526004016115e4929190614c43565b600060405180830381865afa158015611601573d6000803e3d6000fd5b505050506040513d6000823e3d601f19601f8201168201806040525081019061162a9190614f54565b905060008160a001518060200190518101906116469190614f9d565b905080604051602001611659919061425f565b604051602081830303815290604052945050505050979650505050505050565b600c60009054906101000a900473ffffffffffffffffffffffffffffffffffffffff1681565b601081815481106116af57600080fd5b906000526020600020016000915054906101000a900473ffffffffffffffffffffffffffffffffffffffff1681565b601581815481106116ee57600080fd5b906000526020600020016000915054906101000a900473ffffffffffffffffffffffffffffffffffffffff1681565b600b60009054906101000a900473ffffffffffffffffffffffffffffffffffffffff1681565b606089897f000000000000000000000000000000000000000000000000000000000000000073ffffffffffffffffffffffffffffffffffffffff168273ffffffffffffffffffffffffffffffffffffffff16146117cc576040517fc1ab6dc100000000000000000000000000000000000000000000000000000000815260040160405180910390fd5b600260010160009054906101000a900473ffffffffffffffffffffffffffffffffffffffff1673ffffffffffffffffffffffffffffffffffffffff168173ffffffffffffffffffffffffffffffffffffffff1614611856576040517ffe1da89a00000000000000000000000000000000000000000000000000000000815260040160405180910390fd5b600160009054906101000a900473ffffffffffffffffffffffffffffffffffffffff1673ffffffffffffffffffffffffffffffffffffffff163373ffffffffffffffffffffffffffffffffffffffff16146118dd576040517f82b4290000000000000000000000000000000000000000000000000000000000815260040160405180910390fd5b600087878101906118ee9190613c35565b90506118fb818787612267565b935061190781856127bf565b93505050509998505050505050505050565b6007600083815260200190815260200160002060009054906101000a900460ff1615611971576040517f5d904cb200000000000000000000000000000000000000000000000000000000815260040160405180910390fd5b7f000000000000000000000000000000000000000000000000000000000000000073ffffffffffffffffffffffffffffffffffffffff16633bc778e3847f00000000000000000000000000000000000000000000000000000000000000006119f7886040516020016119e39190615012565b6040516020818303038152906040526121ce565b867f0000000000000000000000000000000000000000000000000000000000000000876040518763ffffffff1660e01b8152600401611a3b9695949392919061503e565b60006040518083038186803b158015611a5357600080fd5b505afa158015611a67573d6000803e3d6000fd5b5050505060016007600084815260200190815260200160002060006101000a81548160ff0219169083151502179055506000600d60008881526020019081526020016000209050600015158160050160009054906101000a900460ff16151514611b06576040517f08c379a0000000000000000000000000000000000000000000000000000000008152600401611afd90615112565b60405180910390fd5b60001515600e60003373ffffffffffffffffffffffffffffffffffffffff1673ffffffffffffffffffffffffffffffffffffffff16815260200190815260200160002060008360050160019054906101000a900460ff1615151515815260200190815260200160002060009054906101000a900460ff16151514611bbf576040517f08c379a0000000000000000000000000000000000000000000000000000000008152600401611bb69061517e565b60405180910390fd5b60006001811115611bd357611bd2613d66565b5b866001811115611be657611be5613d66565b5b03611c8a576001600e60003373ffffffffffffffffffffffffffffffffffffffff1673ffffffffffffffffffffffffffffffffffffffff16815260200190815260200160002060008360050160019054906101000a900460ff1615151515815260200190815260200160002060006101000a81548160ff0219169083151502179055506001816001016000828254611c7e919061519e565b92505081905550611d51565b600180811115611c9d57611c9c613d66565b5b866001811115611cb057611caf613d66565b5b03611d50576001600e60003373ffffffffffffffffffffffffffffffffffffffff1673ffffffffffffffffffffffffffffffffffffffff16815260200190815260200160002060008360050160019054906101000a900460ff1615151515815260200190815260200160002060006101000a81548160ff0219169083151502179055506001816002016000828254611d48919061519e565b925050819055505b5b50505050505050565b8060098190555050565b60007f000000000000000000000000000000000000000000000000000000000000000073ffffffffffffffffffffffffffffffffffffffff1663eb3537cc30426040518363ffffffff1660e01b8152600401611dc19291906151f4565b606060405180830381865afa158015611dde573d6000803e3d6000fd5b505050506040513d601f19601f82011682018060405250810190611e02919061521d565b5050905060008113611e49576040517f08c379a0000000000000000000000000000000000000000000000000000000008152600401611e40906152e2565b60405180910390fd5b6000600460010160009054906101000a900473ffffffffffffffffffffffffffffffffffffffff1673ffffffffffffffffffffffffffffffffffffffff1663899baaec7f0000000000000000000000000000000000000000000000000000000000000000306000866040518563ffffffff1660e01b8152600401611ed09493929190615321565b6040805180830381865afa158015611eec573d6000803e3d6000fd5b505050506040513d601f19601f82011682018060405250810190611f10919061537b565b509050611f4c7f00000000000000000000000000000000000000000000000000000000000000006000836004612945909392919063ffffffff16565b5050565b8060168190555050565b6000600d600084815260200190815260200160002090506000601460008473ffffffffffffffffffffffffffffffffffffffff1673ffffffffffffffffffffffffffffffffffffffff16815260200190815260200160002090503373ffffffffffffffffffffffffffffffffffffffff168260030160009054906101000a900473ffffffffffffffffffffffffffffffffffffffff1673ffffffffffffffffffffffffffffffffffffffff161461201057600080fd5b80600201339080600181540180825580915050600190039060005260206000200160009091909190916101000a81548173ffffffffffffffffffffffffffffffffffffffff021916908373ffffffffffffffffffffffffffffffffffffffff16021790555050505050565b6000601460003373ffffffffffffffffffffffffffffffffffffffff1673ffffffffffffffffffffffffffffffffffffffff1681526020019081526020016000209050338160000160006101000a81548173ffffffffffffffffffffffffffffffffffffffff021916908373ffffffffffffffffffffffffffffffffffffffff16021790555081816001019080519060200190612119929190613b48565b5060008160050160006101000a81548160ff0219169083151502179055508281600401819055506015339080600181540180825580915050600190039060005260206000200160009091909190916101000a81548173ffffffffffffffffffffffffffffffffffffffff021916908373ffffffffffffffffffffffffffffffffffffffff160217905550505050565b600660009054906101000a900473ffffffffffffffffffffffffffffffffffffffff1681565b60006008826040516020016121e391906153f7565b6040516020818303038152906040528051906020012060001c901c9050919050565b6122608585858585600067ffffffffffffffff8111156122285761222761430b565b5b6040519080825280601f01601f19166020018201604052801561225a5781602001600182028036833780820191505090505b506129a5565b5050505050565b606082828080601f016020809104026020016040519081016040528093929190818152602001838380828437600081840152601f19601f8201169050808301925050505050505090506000600d600086815260200190815260200160002090506000600260010160009054906101000a900473ffffffffffffffffffffffffffffffffffffffff1673ffffffffffffffffffffffffffffffffffffffff1663e8e7e2d17f0000000000000000000000000000000000000000000000000000000000000000306040518363ffffffff1660e01b815260040161234992919061540e565b602060405180830381865afa158015612366573d6000803e3d6000fd5b505050506040513d601f19601f8201168201806040525081019061238a9190615437565b90506000600260010160009054906101000a900473ffffffffffffffffffffffffffffffffffffffff1673ffffffffffffffffffffffffffffffffffffffff1663e6a1e8887f0000000000000000000000000000000000000000000000000000000000000000308660030160009054906101000a900473ffffffffffffffffffffffffffffffffffffffff166040518463ffffffff1660e01b815260040161243493929190614834565b608060405180830381865afa158015612451573d6000803e3d6000fd5b505050506040513d601f19601f820116820180604052508101906124759190614895565b5050915050600081836124889190615464565b9050600081600b0b0361253e5761253787878080601f016020809104026020016040519081016040528093929190818152602001838380828437600081840152601f19601f82011690508083019250505050505050308660030160009054906101000a900473ffffffffffffffffffffffffffffffffffffffff167f00000000000000000000000000000000000000000000000000000000000000006002612b6290949392919063ffffffff16565b9450612696565b600082600b0b146125f2576125eb87878080601f016020809104026020016040519081016040528093929190818152602001838380828437600081840152601f19601f820116905080830192505050505050508560030160009054906101000a900473ffffffffffffffffffffffffffffffffffffffff167f0000000000000000000000000000000000000000000000000000000000000000846002612bca90949392919063ffffffff16565b9450612695565b61269287878080601f016020809104026020016040519081016040528093929190818152602001838380828437600081840152601f19601f82011690508083019250505050505050600b60009054906101000a900473ffffffffffffffffffffffffffffffffffffffff167f0000000000000000000000000000000000000000000000000000000000000000846002612c3290949392919063ffffffff16565b94505b5b505050509392505050565b6126fa838383600067ffffffffffffffff8111156126c2576126c161430b565b5b6040519080825280601f01601f1916602001820160405280156126f45781602001600182028036833780820191505090505b50612c9a565b505050565b61275984848484600067ffffffffffffffff8111156127215761272061430b565b5b6040519080825280601f01601f1916602001820160405280156127535781602001600182028036833780820191505090505b50612e51565b50505050565b6127b984848484600067ffffffffffffffff8111156127815761278061430b565b5b6040519080825280601f01601f1916602001820160405280156127b35781602001600182028036833780820191505090505b5061300b565b50505050565b60603373ffffffffffffffffffffffffffffffffffffffff16600c60009054906101000a900473ffffffffffffffffffffffffffffffffffffffff1673ffffffffffffffffffffffffffffffffffffffff161461281b57600080fd5b6000600d60008581526020019081526020016000209050600015158160050160009054906101000a900460ff1615151461288a576040517f08c379a000000000000000000000000000000000000000000000000000000000815260040161288190615112565b60405180910390fd5b6000816002015482600101546128a0919061519e565b9050600081606484600101546128b691906154e4565b6128c0919061556d565b905060095481116128d057600080fd5b60018360050160006101000a81548160ff02191690831515021790555061293a8360030160009054906101000a900473ffffffffffffffffffffffffffffffffffffffff16600a60009054906101000a90046fffffffffffffffffffffffffffffffff16876131c5565b935050505092915050565b61299f84848484600067ffffffffffffffff8111156129675761296661430b565b5b6040519080825280601f01601f1916602001820160405280156129995781602001600182028036833780820191505090505b5061320d565b50505050565b8560000160009054906101000a900473ffffffffffffffffffffffffffffffffffffffff1673ffffffffffffffffffffffffffffffffffffffff166339255d5b8760010160009054906101000a900473ffffffffffffffffffffffffffffffffffffffff168860010160009054906101000a900473ffffffffffffffffffffffffffffffffffffffff1673ffffffffffffffffffffffffffffffffffffffff16632e5e74c689898989600067ffffffffffffffff811115612a6957612a6861430b565b5b6040519080825280601f01601f191660200182016040528015612a9b5781602001600182028036833780820191505090505b50604051602401612ab09594939291906155bf565b604051602081830303815290604052915060e01b6020820180517bffffffffffffffffffffffffffffffffffffffffffffffffffffffff8381831617835250505050846040518463ffffffff1660e01b8152600401612b1193929190615619565b6000604051808303816000875af1158015612b30573d6000803e3d6000fd5b505050506040513d6000823e3d601f19601f82011682018060405250810190612b59919061565e565b50505050505050565b6060612bbf8686868686600067ffffffffffffffff811115612b8757612b8661430b565b5b6040519080825280601f01601f191660200182016040528015612bb95781602001600182028036833780820191505090505b506133c7565b905095945050505050565b6060612c278686868686600067ffffffffffffffff811115612bef57612bee61430b565b5b6040519080825280601f01601f191660200182016040528015612c215781602001600182028036833780820191505090505b5061358c565b905095945050505050565b6060612c8f8686868686600067ffffffffffffffff811115612c5757612c5661430b565b5b6040519080825280601f01601f191660200182016040528015612c895781602001600182028036833780820191505090505b50613751565b905095945050505050565b8360000160009054906101000a900473ffffffffffffffffffffffffffffffffffffffff1673ffffffffffffffffffffffffffffffffffffffff166339255d5b8560010160009054906101000a900473ffffffffffffffffffffffffffffffffffffffff168660010160009054906101000a900473ffffffffffffffffffffffffffffffffffffffff1673ffffffffffffffffffffffffffffffffffffffff1663d787840a8787600067ffffffffffffffff811115612d5c57612d5b61430b565b5b6040519080825280601f01601f191660200182016040528015612d8e5781602001600182028036833780820191505090505b50604051602401612da1939291906156a7565b604051602081830303815290604052915060e01b6020820180517bffffffffffffffffffffffffffffffffffffffffffffffffffffffff8381831617835250505050846040518463ffffffff1660e01b8152600401612e0293929190615619565b6000604051808303816000875af1158015612e21573d6000803e3d6000fd5b505050506040513d6000823e3d601f19601f82011682018060405250810190612e4a919061565e565b5050505050565b8460000160009054906101000a900473ffffffffffffffffffffffffffffffffffffffff1673ffffffffffffffffffffffffffffffffffffffff166339255d5b8660010160009054906101000a900473ffffffffffffffffffffffffffffffffffffffff168760010160009054906101000a900473ffffffffffffffffffffffffffffffffffffffff1673ffffffffffffffffffffffffffffffffffffffff166350209a62878988600067ffffffffffffffff811115612f1457612f1361430b565b5b6040519080825280601f01601f191660200182016040528015612f465781602001600182028036833780820191505090505b50604051602401612f5a94939291906156f4565b604051602081830303815290604052915060e01b6020820180517bffffffffffffffffffffffffffffffffffffffffffffffffffffffff8381831617835250505050846040518463ffffffff1660e01b8152600401612fbb93929190615740565b6000604051808303816000875af1158015612fda573d6000803e3d6000fd5b505050506040513d6000823e3d601f19601f82011682018060405250810190613003919061565e565b505050505050565b8460000160009054906101000a900473ffffffffffffffffffffffffffffffffffffffff1673ffffffffffffffffffffffffffffffffffffffff166339255d5b8660010160009054906101000a900473ffffffffffffffffffffffffffffffffffffffff168760010160009054906101000a900473ffffffffffffffffffffffffffffffffffffffff1673ffffffffffffffffffffffffffffffffffffffff166362fc305e878988600067ffffffffffffffff8111156130ce576130cd61430b565b5b6040519080825280601f01601f1916602001820160405280156131005781602001600182028036833780820191505090505b5060405160240161311494939291906156f4565b604051602081830303815290604052915060e01b6020820180517bffffffffffffffffffffffffffffffffffffffffffffffffffffffff8381831617835250505050846040518463ffffffff1660e01b815260040161317593929190615740565b6000604051808303816000875af1158015613194573d6000803e3d6000fd5b505050506040513d6000823e3d601f19601f820116820180604052508101906131bd919061565e565b505050505050565b6060613204827f00000000000000000000000000000000000000000000000000000000000000006000878760046139169095949392919063ffffffff16565b90509392505050565b8460000160009054906101000a900473ffffffffffffffffffffffffffffffffffffffff1673ffffffffffffffffffffffffffffffffffffffff166339255d5b8660010160009054906101000a900473ffffffffffffffffffffffffffffffffffffffff168760010160009054906101000a900473ffffffffffffffffffffffffffffffffffffffff1673ffffffffffffffffffffffffffffffffffffffff1663b96731c2888888600067ffffffffffffffff8111156132d0576132cf61430b565b5b6040519080825280601f01601f1916602001820160405280156133025781602001600182028036833780820191505090505b506040516024016133169493929190615785565b604051602081830303815290604052915060e01b6020820180517bffffffffffffffffffffffffffffffffffffffffffffffffffffffff8381831617835250505050846040518463ffffffff1660e01b815260040161337793929190615619565b6000604051808303816000875af1158015613396573d6000803e3d6000fd5b505050506040513d6000823e3d601f19601f820116820180604052508101906133bf919061565e565b505050505050565b60608660000160009054906101000a900473ffffffffffffffffffffffffffffffffffffffff1673ffffffffffffffffffffffffffffffffffffffff16634329d2938860010160009054906101000a900473ffffffffffffffffffffffffffffffffffffffff168960010160009054906101000a900473ffffffffffffffffffffffffffffffffffffffff1673ffffffffffffffffffffffffffffffffffffffff1663b4b333c6878a8a600067ffffffffffffffff81111561348c5761348b61430b565b5b6040519080825280601f01601f1916602001820160405280156134be5781602001600182028036833780820191505090505b506040516024016134d294939291906157d1565b604051602081830303815290604052915060e01b6020820180517bffffffffffffffffffffffffffffffffffffffffffffffffffffffff8381831617835250505050858a6040518563ffffffff1660e01b8152600401613535949392919061581d565b6000604051808303816000875af1158015613554573d6000803e3d6000fd5b505050506040513d6000823e3d601f19601f8201168201806040525081019061357d9190615877565b50809150509695505050505050565b60608660000160009054906101000a900473ffffffffffffffffffffffffffffffffffffffff1673ffffffffffffffffffffffffffffffffffffffff16634329d2938860010160009054906101000a900473ffffffffffffffffffffffffffffffffffffffff168960010160009054906101000a900473ffffffffffffffffffffffffffffffffffffffff1673ffffffffffffffffffffffffffffffffffffffff166350209a62888a89600067ffffffffffffffff8111156136515761365061430b565b5b6040519080825280601f01601f1916602001820160405280156136835781602001600182028036833780820191505090505b5060405160240161369794939291906156f4565b604051602081830303815290604052915060e01b6020820180517bffffffffffffffffffffffffffffffffffffffffffffffffffffffff8381831617835250505050858a6040518563ffffffff1660e01b81526004016136fa949392919061581d565b6000604051808303816000875af1158015613719573d6000803e3d6000fd5b505050506040513d6000823e3d601f19601f820116820180604052508101906137429190615877565b50809150509695505050505050565b60608660000160009054906101000a900473ffffffffffffffffffffffffffffffffffffffff1673ffffffffffffffffffffffffffffffffffffffff16634329d2938860010160009054906101000a900473ffffffffffffffffffffffffffffffffffffffff168960010160009054906101000a900473ffffffffffffffffffffffffffffffffffffffff1673ffffffffffffffffffffffffffffffffffffffff166362fc305e888a89600067ffffffffffffffff8111156138165761381561430b565b5b6040519080825280601f01601f1916602001820160405280156138485781602001600182028036833780820191505090505b5060405160240161385c94939291906156f4565b604051602081830303815290604052915060e01b6020820180517bffffffffffffffffffffffffffffffffffffffffffffffffffffffff8381831617835250505050858a6040518563ffffffff1660e01b81526004016138bf949392919061581d565b6000604051808303816000875af11580156138de573d6000803e3d6000fd5b505050506040513d6000823e3d601f19601f820116820180604052508101906139079190615877565b50809150509695505050505050565b6060613974878787878787600067ffffffffffffffff81111561393c5761393b61430b565b5b6040519080825280601f01601f19166020018201604052801561396e5781602001600182028036833780820191505090505b50613980565b90509695505050505050565b60608760000160009054906101000a900473ffffffffffffffffffffffffffffffffffffffff1673ffffffffffffffffffffffffffffffffffffffff16634329d2938960010160009054906101000a900473ffffffffffffffffffffffffffffffffffffffff168a60010160009054906101000a900473ffffffffffffffffffffffffffffffffffffffff1673ffffffffffffffffffffffffffffffffffffffff1663232d2b588a8a8a8a600067ffffffffffffffff811115613a4657613a4561430b565b5b6040519080825280601f01601f191660200182016040528015613a785781602001600182028036833780820191505090505b50604051602401613a8d9594939291906158fe565b604051602081830303815290604052915060e01b6020820180517bffffffffffffffffffffffffffffffffffffffffffffffffffffffff8381831617835250505050858b6040518563ffffffff1660e01b8152600401613af09493929190615958565b6000604051808303816000875af1158015613b0f573d6000803e3d6000fd5b505050506040513d6000823e3d601f19601f82011682018060405250810190613b389190615877565b5080915050979650505050505050565b828054613b5490614750565b90600052602060002090601f016020900481019282613b765760008555613bbd565b82601f10613b8f57805160ff1916838001178555613bbd565b82800160010185558215613bbd579182015b82811115613bbc578251825591602001919060010190613ba1565b5b509050613bca9190613bce565b5090565b5b80821115613be7576000816000905550600101613bcf565b5090565b6000604051905090565b600080fd5b600080fd5b6000819050919050565b613c1281613bff565b8114613c1d57600080fd5b50565b600081359050613c2f81613c09565b92915050565b600060208284031215613c4b57613c4a613bf5565b5b6000613c5984828501613c20565b91505092915050565b613c6b81613bff565b82525050565b600073ffffffffffffffffffffffffffffffffffffffff82169050919050565b6000613c9c82613c71565b9050919050565b613cac81613c91565b82525050565b600081519050919050565b600082825260208201905092915050565b60005b83811015613cec578082015181840152602081019050613cd1565b83811115613cfb576000848401525b50505050565b6000601f19601f8301169050919050565b6000613d1d82613cb2565b613d278185613cbd565b9350613d37818560208601613cce565b613d4081613d01565b840191505092915050565b60008115159050919050565b613d6081613d4b565b82525050565b7f4e487b7100000000000000000000000000000000000000000000000000000000600052602160045260246000fd5b60028110613da657613da5613d66565b5b50565b6000819050613db782613d95565b919050565b6000613dc782613da9565b9050919050565b613dd781613dbc565b82525050565b600061010082019050613df3600083018b613c62565b613e00602083018a613c62565b613e0d6040830189613c62565b613e1a6060830188613ca3565b8181036080830152613e2c8187613d12565b9050613e3b60a0830186613d57565b613e4860c0830185613d57565b613e5560e0830184613dce565b9998505050505050505050565b6000819050919050565b6000613e87613e82613e7d84613c71565b613e62565b613c71565b9050919050565b6000613e9982613e6c565b9050919050565b6000613eab82613e8e565b9050919050565b613ebb81613ea0565b82525050565b6000613ecc82613e8e565b9050919050565b613edc81613ec1565b82525050565b6000604082019050613ef76000830185613eb2565b613f046020830184613ed3565b9392505050565b613f1481613c91565b8114613f1f57600080fd5b50565b600081359050613f3181613f0b565b92915050565b600060208284031215613f4d57613f4c613bf5565b5b6000613f5b84828501613f22565b91505092915050565b6000613f6f82613c91565b9050919050565b613f7f81613f64565b8114613f8a57600080fd5b50565b600081359050613f9c81613f76565b92915050565b6000819050919050565b613fb581613fa2565b8114613fc057600080fd5b50565b600081359050613fd281613fac565b92915050565b600080fd5b600080fd5b600080fd5b60008083601f840112613ffd57613ffc613fd8565b5b8235905067ffffffffffffffff81111561401a57614019613fdd565b5b60208301915083600182028301111561403657614035613fe2565b5b9250929050565b600080600080600080600080600060c08a8c03121561405f5761405e613bf5565b5b600061406d8c828d01613f8d565b995050602061407e8c828d01613f22565b985050604061408f8c828d01613fc3565b97505060608a013567ffffffffffffffff8111156140b0576140af613bfa565b5b6140bc8c828d01613fe7565b965096505060808a013567ffffffffffffffff8111156140df576140de613bfa565b5b6140eb8c828d01613fe7565b945094505060a08a013567ffffffffffffffff81111561410e5761410d613bfa565b5b61411a8c828d01613fe7565b92509250509295985092959850929598565b600081519050919050565b600082825260208201905092915050565b60006141538261412c565b61415d8185614137565b935061416d818560208601613cce565b61417681613d01565b840191505092915050565b6000602082019050818103600083015261419b8184614148565b905092915050565b600080600080600080600060a0888a0312156141c2576141c1613bf5565b5b60006141d08a828b01613f8d565b97505060206141e18a828b01613f22565b96505060406141f28a828b01613fc3565b955050606088013567ffffffffffffffff81111561421357614212613bfa565b5b61421f8a828b01613fe7565b9450945050608088013567ffffffffffffffff81111561424257614241613bfa565b5b61424e8a828b01613fe7565b925092505092959891949750929550565b60006020820190506142746000830184613c62565b92915050565b600081600b0b9050919050565b6142908161427a565b811461429b57600080fd5b50565b6000813590506142ad81614287565b92915050565b6000806000606084860312156142cc576142cb613bf5565b5b60006142da8682870161429e565b93505060206142eb8682870161429e565b92505060406142fc86828701613f22565b9150509250925092565b600080fd5b7f4e487b7100000000000000000000000000000000000000000000000000000000600052604160045260246000fd5b61434382613d01565b810181811067ffffffffffffffff821117156143625761436161430b565b5b80604052505050565b6000614375613beb565b9050614381828261433a565b919050565b600067ffffffffffffffff8211156143a1576143a061430b565b5b6143aa82613d01565b9050602081019050919050565b82818337600083830152505050565b60006143d96143d484614386565b61436b565b9050828152602081018484840111156143f5576143f4614306565b5b6144008482856143b7565b509392505050565b600082601f83011261441d5761441c613fd8565b5b813561442d8482602086016143c6565b91505092915050565b6000806040838503121561444d5761444c613bf5565b5b600061445b85828601613c20565b925050602083013567ffffffffffffffff81111561447c5761447b613bfa565b5b61448885828601614408565b9150509250929050565b60006020820190506144a76000830184613ca3565b92915050565b600080604083850312156144c4576144c3613bf5565b5b60006144d285828601613c20565b92505060206144e385828601613f22565b9150509250929050565b60006020828403121561450357614502613bf5565b5b600082013567ffffffffffffffff81111561452157614520613bfa565b5b61452d84828501614408565b91505092915050565b600061454182613e8e565b9050919050565b61455181614536565b82525050565b600060408201905061456c6000830185613eb2565b6145796020830184614548565b9392505050565b60006fffffffffffffffffffffffffffffffff82169050919050565b6145a581614580565b81146145b057600080fd5b50565b6000813590506145c28161459c565b92915050565b6000602082840312156145de576145dd613bf5565b5b60006145ec848285016145b3565b91505092915050565b600060208201905061460a6000830184613eb2565b92915050565b6002811061461d57600080fd5b50565b60008135905061462f81614610565b92915050565b60008190508260206008028201111561465157614650613fe2565b5b92915050565b6000806000806000806101a0878903121561467557614674613bf5565b5b600061468389828a01613c20565b965050602061469489828a01614620565b95505060406146a589828a01613f22565b94505060606146b689828a01613c20565b93505060806146c789828a01613c20565b92505060a06146d889828a01614635565b9150509295509295509295565b60006146f082613e8e565b9050919050565b614700816146e5565b82525050565b600060208201905061471b60008301846146f7565b92915050565b7f4e487b7100000000000000000000000000000000000000000000000000000000600052602260045260246000fd5b6000600282049050600182168061476857607f821691505b60208210810361477b5761477a614721565b5b50919050565b7f556e737570706f727465642063616c6c6261636b202d204265666f726520416760008201527f7265656d656e7420437265617465640000000000000000000000000000000000602082015250565b60006147dd602f83613cbd565b91506147e882614781565b604082019050919050565b6000602082019050818103600083015261480c816147d0565b9050919050565b600061481e82613e8e565b9050919050565b61482e81614813565b82525050565b60006060820190506148496000830186614825565b6148566020830185613ca3565b6148636040830184613ca3565b949350505050565b60008151905061487a81613c09565b92915050565b60008151905061488f81614287565b92915050565b600080600080608085870312156148af576148ae613bf5565b5b60006148bd8782880161486b565b94505060206148ce87828801614880565b93505060406148df8782880161486b565b92505060606148f08782880161486b565b91505092959194509250565b7f4e487b7100000000000000000000000000000000000000000000000000000000600052601160045260246000fd5b600061493682613bff565b91507fffffffffffffffffffffffffffffffffffffffffffffffffffffffffffffffff8203614968576149676148fc565b5b600182019050919050565b600081905092915050565b7f3000000000000000000000000000000000000000000000000000000000000000600082015250565b60006149b4600183614973565b91506149bf8261497e565b600182019050919050565b7f3100000000000000000000000000000000000000000000000000000000000000600082015250565b6000614a00600183614973565b9150614a0b826149ca565b600182019050919050565b7f2b00000000000000000000000000000000000000000000000000000000000000600082015250565b6000614a4c600183614973565b9150614a5782614a16565b600182019050919050565b7f4e65772050726f706f73616c2043726561746564000000000000000000000000600082015250565b6000614a98601483614973565b9150614aa382614a62565b601482019050919050565b7f436865636b206974206f75740000000000000000000000000000000000000000600082015250565b6000614ae4600c83614973565b9150614aef82614aae565b600c82019050919050565b6000614b05826149a7565b9150614b10826149f3565b9150614b1b82614a3f565b9150614b2682614a8b565b9150614b3182614a3f565b9150614b3c82614ad7565b9150819050919050565b6000606082019050614b5b6000830186613ca3565b614b686020830185613ca3565b8181036040830152614b7a8184614148565b9050949350505050565b7f556e737570706f727465642063616c6c6261636b202d20204265666f7265204160008201527f677265656d656e74205465726d696e6174656400000000000000000000000000602082015250565b6000614be0603383613cbd565b9150614beb82614b84565b604082019050919050565b60006020820190508181036000830152614c0f81614bd3565b9050919050565b6000614c228385614137565b9350614c2f8385846143b7565b614c3883613d01565b840190509392505050565b60006020820190508181036000830152614c5e818486614c16565b90509392505050565b600080fd5b600080fd5b600060ff82169050919050565b614c8781614c71565b8114614c9257600080fd5b50565b600081519050614ca481614c7e565b92915050565b600081519050614cb981613f0b565b92915050565b60007fffffffff0000000000000000000000000000000000000000000000000000000082169050919050565b614cf481614cbf565b8114614cff57600080fd5b50565b600081519050614d1181614ceb565b92915050565b600067ffffffffffffffff821115614d3257614d3161430b565b5b614d3b82613d01565b9050602081019050919050565b6000614d5b614d5684614d17565b61436b565b905082815260208101848484011115614d7757614d76614306565b5b614d82848285613cce565b509392505050565b600082601f830112614d9f57614d9e613fd8565b5b8151614daf848260208601614d48565b91505092915050565b6000819050919050565b614dcb81614db8565b8114614dd657600080fd5b50565b600081519050614de881614dc2565b92915050565b6000614df982613c91565b9050919050565b614e0981614dee565b8114614e1457600080fd5b50565b600081519050614e2681614e00565b92915050565b60006101608284031215614e4357614e42614c67565b5b614e4e61016061436b565b90506000614e5e84828501614c95565b6000830152506020614e7284828501614c95565b6020830152506040614e868482850161486b565b6040830152506060614e9a84828501614caa565b6060830152506080614eae84828501614d02565b60808301525060a082015167ffffffffffffffff811115614ed257614ed1614c6c565b5b614ede84828501614d8a565b60a08301525060c0614ef28482850161486b565b60c08301525060e0614f068482850161486b565b60e083015250610100614f1b84828501614dd9565b61010083015250610120614f3184828501614caa565b61012083015250610140614f4784828501614e17565b6101408301525092915050565b600060208284031215614f6a57614f69613bf5565b5b600082015167ffffffffffffffff811115614f8857614f87613bfa565b5b614f9484828501614e2c565b91505092915050565b600060208284031215614fb357614fb2613bf5565b5b6000614fc18482850161486b565b91505092915050565b60008160601b9050919050565b6000614fe282614fca565b9050919050565b6000614ff482614fd7565b9050919050565b61500c61500782613c91565b614fe9565b82525050565b600061501e8284614ffb565b60148201915081905092915050565b61503a61010083836143b7565b5050565b60006101a0820190506150546000830189613c62565b6150616020830188613c62565b61506e6040830187613c62565b61507b6060830186613c62565b6150886080830185613c62565b61509560a083018461502d565b979650505050505050565b7f596f752063616e6e6f7420766f746520666f7220636f6d706c6574656420707260008201527f6f706f73616c7321000000000000000000000000000000000000000000000000602082015250565b60006150fc602883613cbd565b9150615107826150a0565b604082019050919050565b6000602082019050818103600083015261512b816150ef565b9050919050565b7f596f75206861766520616c726561647920766f74656400000000000000000000600082015250565b6000615168601683613cbd565b915061517382615132565b602082019050919050565b600060208201905081810360008301526151978161515b565b9050919050565b60006151a982613bff565b91506151b483613bff565b9250827fffffffffffffffffffffffffffffffffffffffffffffffffffffffffffffffff038211156151e9576151e86148fc565b5b828201905092915050565b60006040820190506152096000830185613ca3565b6152166020830184613c62565b9392505050565b60008060006060848603121561523657615235613bf5565b5b600061524486828701614dd9565b93505060206152558682870161486b565b92505060406152668682870161486b565b9150509250925092565b7f5351463a20596f75206e656564204d6f6e657920746f2064697374726962757460008201527f6500000000000000000000000000000000000000000000000000000000000000602082015250565b60006152cc602183613cbd565b91506152d782615270565b604082019050919050565b600060208201905081810360008301526152fb816152bf565b9050919050565b600063ffffffff82169050919050565b61531b81615302565b82525050565b60006080820190506153366000830187614825565b6153436020830186613ca3565b6153506040830185615312565b61535d6060830184613c62565b95945050505050565b6000815190506153758161459c565b92915050565b6000806040838503121561539257615391613bf5565b5b60006153a08582860161486b565b92505060206153b185828601615366565b9150509250929050565b600081905092915050565b60006153d18261412c565b6153db81856153bb565b93506153eb818560208601613cce565b80840191505092915050565b600061540382846153c6565b915081905092915050565b60006040820190506154236000830185614825565b6154306020830184613ca3565b9392505050565b60006020828403121561544d5761544c613bf5565b5b600061545b84828501614880565b91505092915050565b600061546f8261427a565b915061547a8361427a565b9250816b7fffffffffffffffffffffff038313600083121516156154a1576154a06148fc565b5b817fffffffffffffffffffffffffffffffffffffffff8000000000000000000000000383126000831216156154d9576154d86148fc565b5b828201905092915050565b60006154ef82613bff565b91506154fa83613bff565b9250817fffffffffffffffffffffffffffffffffffffffffffffffffffffffffffffffff0483118215151615615533576155326148fc565b5b828202905092915050565b7f4e487b7100000000000000000000000000000000000000000000000000000000600052601260045260246000fd5b600061557882613bff565b915061558383613bff565b9250826155935761559261553e565b5b828204905092915050565b60006155a982613e8e565b9050919050565b6155b98161559e565b82525050565b600060a0820190506155d460008301886155b0565b6155e16020830187613ca3565b6155ee6040830186615312565b6155fb6060830185613ca3565b818103608083015261560d8184614148565b90509695505050505050565b600060608201905061562e6000830186613ed3565b81810360208301526156408185614148565b905081810360408301526156548184614148565b9050949350505050565b60006020828403121561567457615673613bf5565b5b600082015167ffffffffffffffff81111561569257615691613bfa565b5b61569e84828501614d8a565b91505092915050565b60006060820190506156bc60008301866155b0565b6156c96020830185615312565b81810360408301526156db8184614148565b9050949350505050565b6156ee8161427a565b82525050565b600060808201905061570960008301876155b0565b6157166020830186613ca3565b61572360408301856156e5565b81810360608301526157358184614148565b905095945050505050565b60006060820190506157556000830186614548565b81810360208301526157678185614148565b9050818103604083015261577b8184614148565b9050949350505050565b600060808201905061579a60008301876155b0565b6157a76020830186615312565b6157b46040830185613c62565b81810360608301526157c68184614148565b905095945050505050565b60006080820190506157e660008301876155b0565b6157f36020830186613ca3565b6158006040830185613ca3565b81810360608301526158128184614148565b905095945050505050565b60006080820190506158326000830187614548565b81810360208301526158448186614148565b905081810360408301526158588185614148565b9050818103606083015261586c8184614148565b905095945050505050565b6000806040838503121561588e5761588d613bf5565b5b600083015167ffffffffffffffff8111156158ac576158ab613bfa565b5b6158b885828601614d8a565b925050602083015167ffffffffffffffff8111156158d9576158d8613bfa565b5b6158e585828601614d8a565b9150509250929050565b6158f881614580565b82525050565b600060a08201905061591360008301886155b0565b6159206020830187615312565b61592d6040830186613ca3565b61593a60608301856158ef565b818103608083015261594c8184614148565b90509695505050505050565b600060808201905061596d6000830187613ed3565b818103602083015261597f8186614148565b905081810360408301526159938185614148565b905081810360608301526159a78184614148565b90509594505050505056fea2646970667358221220e8cd1b333fdcde9724bf11ad63bfeb8b1b0b2fdd71073d77bbf9b009e13fc88364736f6c634300080e0033",
  "linkReferences": {},
  "deployedLinkReferences": {}
}